{
  "contractName": "PremiumDog",
  "abi": [
    {
      "inputs": [],
      "stateMutability": "nonpayable",
      "type": "constructor"
    },
    {
      "anonymous": false,
      "inputs": [
        {
          "indexed": true,
          "internalType": "address",
          "name": "account",
          "type": "address"
        },
        {
          "indexed": true,
          "internalType": "address",
          "name": "operator",
          "type": "address"
        },
        {
          "indexed": false,
          "internalType": "bool",
          "name": "approved",
          "type": "bool"
        }
      ],
      "name": "ApprovalForAll",
      "type": "event"
    },
    {
      "anonymous": false,
      "inputs": [
        {
          "indexed": false,
          "internalType": "address",
          "name": "receiver",
          "type": "address"
        },
        {
          "indexed": false,
          "internalType": "uint256",
          "name": "tokenId",
          "type": "uint256"
        },
        {
          "indexed": false,
          "internalType": "uint8",
          "name": "dogType",
          "type": "uint8"
        }
      ],
      "name": "NewDogMinted",
      "type": "event"
    },
    {
      "anonymous": false,
      "inputs": [
        {
          "indexed": true,
          "internalType": "address",
          "name": "previousOwner",
          "type": "address"
        },
        {
          "indexed": true,
          "internalType": "address",
          "name": "newOwner",
          "type": "address"
        }
      ],
      "name": "OwnershipTransferred",
      "type": "event"
    },
    {
      "anonymous": false,
      "inputs": [
        {
          "indexed": true,
          "internalType": "bytes32",
          "name": "role",
          "type": "bytes32"
        },
        {
          "indexed": true,
          "internalType": "bytes32",
          "name": "previousAdminRole",
          "type": "bytes32"
        },
        {
          "indexed": true,
          "internalType": "bytes32",
          "name": "newAdminRole",
          "type": "bytes32"
        }
      ],
      "name": "RoleAdminChanged",
      "type": "event"
    },
    {
      "anonymous": false,
      "inputs": [
        {
          "indexed": true,
          "internalType": "bytes32",
          "name": "role",
          "type": "bytes32"
        },
        {
          "indexed": true,
          "internalType": "address",
          "name": "account",
          "type": "address"
        },
        {
          "indexed": true,
          "internalType": "address",
          "name": "sender",
          "type": "address"
        }
      ],
      "name": "RoleGranted",
      "type": "event"
    },
    {
      "anonymous": false,
      "inputs": [
        {
          "indexed": true,
          "internalType": "bytes32",
          "name": "role",
          "type": "bytes32"
        },
        {
          "indexed": true,
          "internalType": "address",
          "name": "account",
          "type": "address"
        },
        {
          "indexed": true,
          "internalType": "address",
          "name": "sender",
          "type": "address"
        }
      ],
      "name": "RoleRevoked",
      "type": "event"
    },
    {
      "anonymous": false,
      "inputs": [
        {
          "indexed": true,
          "internalType": "address",
          "name": "operator",
          "type": "address"
        },
        {
          "indexed": true,
          "internalType": "address",
          "name": "from",
          "type": "address"
        },
        {
          "indexed": true,
          "internalType": "address",
          "name": "to",
          "type": "address"
        },
        {
          "indexed": false,
          "internalType": "uint256[]",
          "name": "ids",
          "type": "uint256[]"
        },
        {
          "indexed": false,
          "internalType": "uint256[]",
          "name": "values",
          "type": "uint256[]"
        }
      ],
      "name": "TransferBatch",
      "type": "event"
    },
    {
      "anonymous": false,
      "inputs": [
        {
          "indexed": true,
          "internalType": "address",
          "name": "operator",
          "type": "address"
        },
        {
          "indexed": true,
          "internalType": "address",
          "name": "from",
          "type": "address"
        },
        {
          "indexed": true,
          "internalType": "address",
          "name": "to",
          "type": "address"
        },
        {
          "indexed": false,
          "internalType": "uint256",
          "name": "id",
          "type": "uint256"
        },
        {
          "indexed": false,
          "internalType": "uint256",
          "name": "value",
          "type": "uint256"
        }
      ],
      "name": "TransferSingle",
      "type": "event"
    },
    {
      "anonymous": false,
      "inputs": [
        {
          "indexed": false,
          "internalType": "string",
          "name": "value",
          "type": "string"
        },
        {
          "indexed": true,
          "internalType": "uint256",
          "name": "id",
          "type": "uint256"
        }
      ],
      "name": "URI",
      "type": "event"
    },
    {
      "inputs": [],
      "name": "DEFAULT_ADMIN_ROLE",
      "outputs": [
        {
          "internalType": "bytes32",
          "name": "",
          "type": "bytes32"
        }
      ],
      "stateMutability": "view",
      "type": "function",
      "constant": true
    },
    {
      "inputs": [
        {
          "internalType": "address",
          "name": "account",
          "type": "address"
        },
        {
          "internalType": "uint256",
          "name": "id",
          "type": "uint256"
        }
      ],
      "name": "balanceOf",
      "outputs": [
        {
          "internalType": "uint256",
          "name": "",
          "type": "uint256"
        }
      ],
      "stateMutability": "view",
      "type": "function",
      "constant": true
    },
    {
      "inputs": [
        {
          "internalType": "address[]",
          "name": "accounts",
          "type": "address[]"
        },
        {
          "internalType": "uint256[]",
          "name": "ids",
          "type": "uint256[]"
        }
      ],
      "name": "balanceOfBatch",
      "outputs": [
        {
          "internalType": "uint256[]",
          "name": "",
          "type": "uint256[]"
        }
      ],
      "stateMutability": "view",
      "type": "function",
      "constant": true
    },
    {
      "inputs": [
        {
          "internalType": "bytes32",
          "name": "role",
          "type": "bytes32"
        }
      ],
      "name": "getRoleAdmin",
      "outputs": [
        {
          "internalType": "bytes32",
          "name": "",
          "type": "bytes32"
        }
      ],
      "stateMutability": "view",
      "type": "function",
      "constant": true
    },
    {
      "inputs": [
        {
          "internalType": "bytes32",
          "name": "role",
          "type": "bytes32"
        },
        {
          "internalType": "address",
          "name": "account",
          "type": "address"
        }
      ],
      "name": "grantRole",
      "outputs": [],
      "stateMutability": "nonpayable",
      "type": "function"
    },
    {
      "inputs": [
        {
          "internalType": "bytes32",
          "name": "role",
          "type": "bytes32"
        },
        {
          "internalType": "address",
          "name": "account",
          "type": "address"
        }
      ],
      "name": "hasRole",
      "outputs": [
        {
          "internalType": "bool",
          "name": "",
          "type": "bool"
        }
      ],
      "stateMutability": "view",
      "type": "function",
      "constant": true
    },
    {
      "inputs": [
        {
          "internalType": "address",
          "name": "account",
          "type": "address"
        },
        {
          "internalType": "address",
          "name": "operator",
          "type": "address"
        }
      ],
      "name": "isApprovedForAll",
      "outputs": [
        {
          "internalType": "bool",
          "name": "",
          "type": "bool"
        }
      ],
      "stateMutability": "view",
      "type": "function",
      "constant": true
    },
    {
      "inputs": [],
      "name": "maxSupply",
      "outputs": [
        {
          "internalType": "uint256",
          "name": "",
          "type": "uint256"
        }
      ],
      "stateMutability": "view",
      "type": "function",
      "constant": true
    },
    {
      "inputs": [],
      "name": "name",
      "outputs": [
        {
          "internalType": "string",
          "name": "",
          "type": "string"
        }
      ],
      "stateMutability": "view",
      "type": "function",
      "constant": true
    },
    {
      "inputs": [
        {
          "internalType": "address",
          "name": "",
          "type": "address"
        }
      ],
      "name": "numberOfMint",
      "outputs": [
        {
          "internalType": "uint8",
          "name": "",
          "type": "uint8"
        }
      ],
      "stateMutability": "view",
      "type": "function",
      "constant": true
    },
    {
      "inputs": [],
      "name": "owner",
      "outputs": [
        {
          "internalType": "address",
          "name": "",
          "type": "address"
        }
      ],
      "stateMutability": "view",
      "type": "function",
      "constant": true
    },
    {
      "inputs": [],
      "name": "renounceOwnership",
      "outputs": [],
      "stateMutability": "nonpayable",
      "type": "function"
    },
    {
      "inputs": [
        {
          "internalType": "bytes32",
          "name": "role",
          "type": "bytes32"
        },
        {
          "internalType": "address",
          "name": "account",
          "type": "address"
        }
      ],
      "name": "renounceRole",
      "outputs": [],
      "stateMutability": "nonpayable",
      "type": "function"
    },
    {
      "inputs": [
        {
          "internalType": "bytes32",
          "name": "role",
          "type": "bytes32"
        },
        {
          "internalType": "address",
          "name": "account",
          "type": "address"
        }
      ],
      "name": "revokeRole",
      "outputs": [],
      "stateMutability": "nonpayable",
      "type": "function"
    },
    {
      "inputs": [
        {
          "internalType": "address",
          "name": "from",
          "type": "address"
        },
        {
          "internalType": "address",
          "name": "to",
          "type": "address"
        },
        {
          "internalType": "uint256[]",
          "name": "ids",
          "type": "uint256[]"
        },
        {
          "internalType": "uint256[]",
          "name": "amounts",
          "type": "uint256[]"
        },
        {
          "internalType": "bytes",
          "name": "data",
          "type": "bytes"
        }
      ],
      "name": "safeBatchTransferFrom",
      "outputs": [],
      "stateMutability": "nonpayable",
      "type": "function"
    },
    {
      "inputs": [
        {
          "internalType": "address",
          "name": "from",
          "type": "address"
        },
        {
          "internalType": "address",
          "name": "to",
          "type": "address"
        },
        {
          "internalType": "uint256",
          "name": "id",
          "type": "uint256"
        },
        {
          "internalType": "uint256",
          "name": "amount",
          "type": "uint256"
        },
        {
          "internalType": "bytes",
          "name": "data",
          "type": "bytes"
        }
      ],
      "name": "safeTransferFrom",
      "outputs": [],
      "stateMutability": "nonpayable",
      "type": "function"
    },
    {
      "inputs": [],
      "name": "saleOpen",
      "outputs": [
        {
          "internalType": "bool",
          "name": "",
          "type": "bool"
        }
      ],
      "stateMutability": "view",
      "type": "function",
      "constant": true
    },
    {
      "inputs": [
        {
          "internalType": "address",
          "name": "operator",
          "type": "address"
        },
        {
          "internalType": "bool",
          "name": "approved",
          "type": "bool"
        }
      ],
      "name": "setApprovalForAll",
      "outputs": [],
      "stateMutability": "nonpayable",
      "type": "function"
    },
    {
      "inputs": [],
      "name": "symbol",
      "outputs": [
        {
          "internalType": "string",
          "name": "",
          "type": "string"
        }
      ],
      "stateMutability": "view",
      "type": "function",
      "constant": true
    },
    {
      "inputs": [
        {
          "internalType": "uint256",
          "name": "",
          "type": "uint256"
        }
      ],
      "name": "tokenDogType",
      "outputs": [
        {
          "internalType": "uint8",
          "name": "",
          "type": "uint8"
        }
      ],
      "stateMutability": "view",
      "type": "function",
      "constant": true
    },
    {
      "inputs": [
        {
          "internalType": "address",
          "name": "newOwner",
          "type": "address"
        }
      ],
      "name": "transferOwnership",
      "outputs": [],
      "stateMutability": "nonpayable",
      "type": "function"
    },
    {
      "inputs": [
        {
          "internalType": "bytes4",
          "name": "interfaceId",
          "type": "bytes4"
        }
      ],
      "name": "supportsInterface",
      "outputs": [
        {
          "internalType": "bool",
          "name": "",
          "type": "bool"
        }
      ],
      "stateMutability": "view",
      "type": "function",
      "constant": true
    },
    {
      "inputs": [
        {
          "internalType": "uint8",
          "name": "dogType",
          "type": "uint8"
        }
      ],
      "name": "getDogByDogType",
      "outputs": [
        {
          "components": [
            {
              "internalType": "uint256",
              "name": "price",
              "type": "uint256"
            },
            {
              "internalType": "uint8",
              "name": "dogType",
              "type": "uint8"
            },
            {
              "internalType": "uint8",
              "name": "count",
              "type": "uint8"
            }
          ],
          "internalType": "struct PremiumDog.Dog",
          "name": "dog",
          "type": "tuple"
        }
      ],
      "stateMutability": "view",
      "type": "function",
      "constant": true
    },
    {
      "inputs": [],
      "name": "totalSupply",
      "outputs": [
        {
          "internalType": "uint256",
          "name": "",
          "type": "uint256"
        }
      ],
      "stateMutability": "pure",
      "type": "function",
      "constant": true
    },
    {
      "inputs": [
        {
          "internalType": "uint8",
          "name": "dogType",
          "type": "uint8"
        }
      ],
      "name": "getDogPrice",
      "outputs": [
        {
          "internalType": "uint256",
          "name": "",
          "type": "uint256"
        }
      ],
      "stateMutability": "view",
      "type": "function",
      "constant": true
    },
    {
      "inputs": [
        {
          "internalType": "uint8",
          "name": "dogType",
          "type": "uint8"
        }
      ],
      "name": "getDogCount",
      "outputs": [
        {
          "internalType": "uint256",
          "name": "",
          "type": "uint256"
        }
      ],
      "stateMutability": "view",
      "type": "function",
      "constant": true
    },
    {
      "inputs": [],
      "name": "getCounter",
      "outputs": [
        {
          "internalType": "uint256",
          "name": "",
          "type": "uint256"
        }
      ],
      "stateMutability": "view",
      "type": "function",
      "constant": true
    },
    {
      "inputs": [
        {
          "internalType": "uint8",
          "name": "dogType",
          "type": "uint8"
        }
      ],
      "name": "createPack",
      "outputs": [],
      "stateMutability": "payable",
      "type": "function",
      "payable": true
    },
    {
      "inputs": [
        {
          "internalType": "uint256",
          "name": "tokenId",
          "type": "uint256"
        }
      ],
      "name": "uri",
      "outputs": [
        {
          "internalType": "string",
          "name": "myjson",
          "type": "string"
        }
      ],
      "stateMutability": "view",
      "type": "function",
      "constant": true
    },
    {
      "inputs": [
        {
          "internalType": "uint256[]",
          "name": "dogType",
          "type": "uint256[]"
        },
        {
          "internalType": "uint256[]",
          "name": "newPrice",
          "type": "uint256[]"
        }
      ],
      "name": "changePrice",
      "outputs": [],
      "stateMutability": "nonpayable",
      "type": "function"
    },
    {
      "inputs": [
        {
          "internalType": "bool",
          "name": "toggleSale",
          "type": "bool"
        }
      ],
      "name": "changeSaleOpen",
      "outputs": [],
      "stateMutability": "nonpayable",
      "type": "function"
    },
    {
      "inputs": [
        {
          "internalType": "uint256",
          "name": "id",
          "type": "uint256"
        },
        {
          "internalType": "uint256",
          "name": "amount",
          "type": "uint256"
        }
      ],
      "name": "burn",
      "outputs": [],
      "stateMutability": "nonpayable",
      "type": "function"
    }
  ],
  "bytecode": "0x6080604052600160115560405180602001604052806000815250601290805190602001906200003092919062000380565b506000601360006101000a81548160ff0219169083151502179055503480156200005957600080fd5b50604051806020016040528060008152506200007b816200029660201b60201c565b506200009c62000090620002b260201b60201c565b620002ba60201b60201c565b60016005819055506040518060600160405280662386f26fc100008152602001600060ff168152602001600060ff1681525060096000820151816000015560208201518160010160006101000a81548160ff021916908360ff16021790555060408201518160010160016101000a81548160ff021916908360ff160217905550905050604051806060016040528066470de4df8200008152602001600160ff168152602001600060ff16815250600b6000820151816000015560208201518160010160006101000a81548160ff021916908360ff16021790555060408201518160010160016101000a81548160ff021916908360ff1602179055509050506040518060600160405280666a94d74f4300008152602001600260ff168152602001600060ff16815250600d6000820151816000015560208201518160010160006101000a81548160ff021916908360ff16021790555060408201518160010160016101000a81548160ff021916908360ff1602179055509050506040518060600160405280668e1bc9bf0400008152602001600360ff168152602001600060ff16815250600f6000820151816000015560208201518160010160006101000a81548160ff021916908360ff16021790555060408201518160010160016101000a81548160ff021916908360ff16021790555090505062000526565b8060029080519060200190620002ae92919062000411565b5050565b600033905090565b6000600360009054906101000a900473ffffffffffffffffffffffffffffffffffffffff16905081600360006101000a81548173ffffffffffffffffffffffffffffffffffffffff021916908373ffffffffffffffffffffffffffffffffffffffff1602179055508173ffffffffffffffffffffffffffffffffffffffff168173ffffffffffffffffffffffffffffffffffffffff167f8be0079c531659141344cd1fd0a4f28419497f9722a3daafe3b4186f6b6457e060405160405180910390a35050565b8280546200038e90620004c1565b90600052602060002090601f016020900481019282620003b25760008555620003fe565b82601f10620003cd57805160ff1916838001178555620003fe565b82800160010185558215620003fe579182015b82811115620003fd578251825591602001919060010190620003e0565b5b5090506200040d9190620004a2565b5090565b8280546200041f90620004c1565b90600052602060002090601f0160209004810192826200044357600085556200048f565b82601f106200045e57805160ff19168380011785556200048f565b828001600101855582156200048f579182015b828111156200048e57825182559160200191906001019062000471565b5b5090506200049e9190620004a2565b5090565b5b80821115620004bd576000816000905550600101620004a3565b5090565b60006002820490506001821680620004da57607f821691505b60208210811415620004f157620004f0620004f7565b5b50919050565b7f4e487b7100000000000000000000000000000000000000000000000000000000600052602260045260246000fd5b6154ba80620005366000396000f3fe6080604052600436106101e25760003560e01c80638ada066e11610102578063a22cb46511610095578063d639cdd111610064578063d639cdd114610730578063e985e9c514610759578063f242432a14610796578063f2fde38b146107bf576101e2565b8063a22cb4651461068a578063b390c0ab146106b3578063d547741f146106dc578063d5abeb0114610705576101e2565b806392b5c3f1116100d157806392b5c3f1146105cc57806395d89b411461060957806399288dbb14610634578063a217fddf1461065f576101e2565b80638ada066e146104fc5780638da5cb5b1461052757806391a6bda71461055257806391d148541461058f576101e2565b80633105f4311161017a57806355bf55c71161014957806355bf55c71461044257806363fae3341461047f578063715018a6146104a857806379f384eb146104bf576101e2565b80633105f4311461038357806336568abe1461039f5780633fcbb4d4146103c85780634e1273f414610405576101e2565b806318160ddd116101b657806318160ddd146102c9578063248a9ca3146102f45780632eb2c2d6146103315780632f2ff15d1461035a576101e2565b8062fdd58e146101e757806301ffc9a71461022457806306fdde03146102615780630e89341c1461028c575b600080fd5b3480156101f357600080fd5b5061020e600480360381019061020991906137f9565b6107e8565b60405161021b919061460a565b60405180910390f35b34801561023057600080fd5b5061024b6004803603810190610246919061399b565b6108b1565b6040516102589190614277565b60405180910390f35b34801561026d57600080fd5b506102766108c3565b60405161028391906142ad565b60405180910390f35b34801561029857600080fd5b506102b360048036038101906102ae91906139ed565b6108fc565b6040516102c091906142ad565b60405180910390f35b3480156102d557600080fd5b506102de610aaf565b6040516102eb919061460a565b60405180910390f35b34801561030057600080fd5b5061031b60048036038101906103169190613936565b610ab9565b6040516103289190614292565b60405180910390f35b34801561033d57600080fd5b506103586004803603810190610353919061366f565b610ad9565b005b34801561036657600080fd5b50610381600480360381019061037c919061395f565b610b7a565b005b61039d60048036038101906103989190613a52565b610ba3565b005b3480156103ab57600080fd5b506103c660048036038101906103c1919061395f565b610f33565b005b3480156103d457600080fd5b506103ef60048036038101906103ea919061360a565b610fb6565b6040516103fc919061464e565b60405180910390f35b34801561041157600080fd5b5061042c60048036038101906104279190613835565b610fd6565b604051610439919061421e565b60405180910390f35b34801561044e57600080fd5b5061046960048036038101906104649190613a52565b611187565b604051610476919061460a565b60405180910390f35b34801561048b57600080fd5b506104a660048036038101906104a191906138a1565b6111a2565b005b3480156104b457600080fd5b506104bd61152c565b005b3480156104cb57600080fd5b506104e660048036038101906104e191906139ed565b6115b4565b6040516104f3919061464e565b60405180910390f35b34801561050857600080fd5b506105116115d4565b60405161051e919061460a565b60405180910390f35b34801561053357600080fd5b5061053c6115e5565b604051610549919061410a565b60405180910390f35b34801561055e57600080fd5b5061057960048036038101906105749190613a52565b61160f565b60405161058691906145ef565b60405180910390f35b34801561059b57600080fd5b506105b660048036038101906105b1919061395f565b6117f3565b6040516105c39190614277565b60405180910390f35b3480156105d857600080fd5b506105f360048036038101906105ee9190613a52565b61185e565b604051610600919061460a565b60405180910390f35b34801561061557600080fd5b5061061e61187c565b60405161062b91906142ad565b60405180910390f35b34801561064057600080fd5b506106496118b5565b6040516106569190614277565b60405180910390f35b34801561066b57600080fd5b506106746118c8565b6040516106819190614292565b60405180910390f35b34801561069657600080fd5b506106b160048036038101906106ac91906137bd565b6118cf565b005b3480156106bf57600080fd5b506106da60048036038101906106d59190613a16565b6118e5565b005b3480156106e857600080fd5b5061070360048036038101906106fe919061395f565b6118f4565b005b34801561071157600080fd5b5061071a61191d565b604051610727919061460a565b60405180910390f35b34801561073c57600080fd5b506107576004803603810190610752919061390d565b611923565b005b34801561076557600080fd5b50610780600480360381019061077b9190613633565b6119bc565b60405161078d9190614277565b60405180910390f35b3480156107a257600080fd5b506107bd60048036038101906107b8919061372e565b611a50565b005b3480156107cb57600080fd5b506107e660048036038101906107e1919061360a565b611af1565b005b60008073ffffffffffffffffffffffffffffffffffffffff168373ffffffffffffffffffffffffffffffffffffffff161415610859576040517f08c379a00000000000000000000000000000000000000000000000000000000081526004016108509061434f565b60405180910390fd5b60008083815260200190815260200160002060008473ffffffffffffffffffffffffffffffffffffffff1673ffffffffffffffffffffffffffffffffffffffff16815260200190815260200160002054905092915050565b60006108bc82611be9565b9050919050565b6040518060400160405280601581526020017f54686520446f67206f6620416e647942696d42616d000000000000000000000081525081565b606060036007600084815260200190815260200160002060009054906101000a900460ff1660ff161115610965576040517f08c379a000000000000000000000000000000000000000000000000000000000815260040161095c906143cf565b60405180910390fd5b60006007600084815260200190815260200160002060009054906101000a900460ff1660ff1614156109b6576040516020016109a09061407c565b6040516020818303038152906040529050610aaa565b60016007600084815260200190815260200160002060009054906101000a900460ff1660ff161415610a07576040516020016109f1906140a6565b6040516020818303038152906040529050610aaa565b60026007600084815260200190815260200160002060009054906101000a900460ff1660ff161415610a5857604051602001610a4290614091565b6040516020818303038152906040529050610aaa565b60036007600084815260200190815260200160002060009054906101000a900460ff1660ff161415610aa957604051602001610a93906140bb565b6040516020818303038152906040529050610aaa565b5b919050565b6000612710905090565b600060046000838152602001908152602001600020600101549050919050565b610ae1611c63565b73ffffffffffffffffffffffffffffffffffffffff168573ffffffffffffffffffffffffffffffffffffffff161480610b275750610b2685610b21611c63565b6119bc565b5b610b66576040517f08c379a0000000000000000000000000000000000000000000000000000000008152600401610b5d9061444f565b60405180910390fd5b610b738585858585611c6b565b5050505050565b610b8382610ab9565b610b9481610b8f611c63565b611fcb565b610b9e8383612068565b505050565b60026005541415610be9576040517f08c379a0000000000000000000000000000000000000000000000000000000008152600401610be09061458f565b60405180910390fd5b60026005819055506000610bfc8261160f565b9050612710610c0b6006612149565b10610c4b576040517f08c379a0000000000000000000000000000000000000000000000000000000008152600401610c42906144ef565b60405180910390fd5b6004600860003373ffffffffffffffffffffffffffffffffffffffff1673ffffffffffffffffffffffffffffffffffffffff16815260200190815260200160002060009054906101000a900460ff1660ff1610610cdd576040517f08c379a0000000000000000000000000000000000000000000000000000000008152600401610cd49061432f565b60405180910390fd5b60011515601360009054906101000a900460ff16151514610d33576040517f08c379a0000000000000000000000000000000000000000000000000000000008152600401610d2a906144cf565b60405180910390fd5b8060000151341015610d7a576040517f08c379a0000000000000000000000000000000000000000000000000000000008152600401610d719061440f565b60405180910390fd5b6000610d866006612149565b905081602001516007600083815260200190815260200160002060006101000a81548160ff021916908360ff160217905550600860003373ffffffffffffffffffffffffffffffffffffffff1673ffffffffffffffffffffffffffffffffffffffff168152602001908152602001600020600081819054906101000a900460ff1680929190610e14906149e6565b91906101000a81548160ff021916908360ff16021790555050816040018051809190610e3f906149e6565b60ff1660ff1681525050610e536006612157565b610eeb338260115460128054610e689061493a565b80601f0160208091040260200160405190810160405280929190818152602001828054610e949061493a565b8015610ee15780601f10610eb657610100808354040283529160200191610ee1565b820191906000526020600020905b815481529060010190602001808311610ec457829003601f168201915b505050505061216d565b7f67e49abbd57607e0ccbe6e2a432e64baec99981768ddc278d80571f67c8d0ef8338285604051610f1e939291906141e7565b60405180910390a15050600160058190555050565b610f3b611c63565b73ffffffffffffffffffffffffffffffffffffffff168173ffffffffffffffffffffffffffffffffffffffff1614610fa8576040517f08c379a0000000000000000000000000000000000000000000000000000000008152600401610f9f906145cf565b60405180910390fd5b610fb28282612303565b5050565b60086020528060005260406000206000915054906101000a900460ff1681565b6060815183511461101c576040517f08c379a00000000000000000000000000000000000000000000000000000000081526004016110139061452f565b60405180910390fd5b6000835167ffffffffffffffff81111561105f577f4e487b7100000000000000000000000000000000000000000000000000000000600052604160045260246000fd5b60405190808252806020026020018201604052801561108d5781602001602082028036833780820191505090505b50905060005b845181101561117c576111268582815181106110d8577f4e487b7100000000000000000000000000000000000000000000000000000000600052603260045260246000fd5b6020026020010151858381518110611119577f4e487b7100000000000000000000000000000000000000000000000000000000600052603260045260246000fd5b60200260200101516107e8565b82828151811061115f577f4e487b7100000000000000000000000000000000000000000000000000000000600052603260045260246000fd5b602002602001018181525050806111759061499d565b9050611093565b508091505092915050565b6000806111938361160f565b90508060000151915050919050565b6111aa611c63565b73ffffffffffffffffffffffffffffffffffffffff166111c86115e5565b73ffffffffffffffffffffffffffffffffffffffff161461121e576040517f08c379a0000000000000000000000000000000000000000000000000000000008152600401611215906144af565b60405180910390fd5b60001515601360009054906101000a900460ff16151514611274576040517f08c379a000000000000000000000000000000000000000000000000000000000815260040161126b906145af565b60405180910390fd5b80518251146112b8576040517f08c379a00000000000000000000000000000000000000000000000000000000081526004016112af906143ef565b60405180910390fd5b60005b82518110156115275760008382815181106112ff577f4e487b7100000000000000000000000000000000000000000000000000000000600052603260045260246000fd5b6020026020010151141561135857818181518110611346577f4e487b7100000000000000000000000000000000000000000000000000000000600052603260045260246000fd5b60200260200101516009600001819055505b6001838281518110611393577f4e487b7100000000000000000000000000000000000000000000000000000000600052603260045260246000fd5b602002602001015114156113ec578181815181106113da577f4e487b7100000000000000000000000000000000000000000000000000000000600052603260045260246000fd5b6020026020010151600b600001819055505b6002838281518110611427577f4e487b7100000000000000000000000000000000000000000000000000000000600052603260045260246000fd5b602002602001015114156114805781818151811061146e577f4e487b7100000000000000000000000000000000000000000000000000000000600052603260045260246000fd5b6020026020010151600d600001819055505b60038382815181106114bb577f4e487b7100000000000000000000000000000000000000000000000000000000600052603260045260246000fd5b6020026020010151141561151457818181518110611502577f4e487b7100000000000000000000000000000000000000000000000000000000600052603260045260246000fd5b6020026020010151600f600001819055505b808061151f9061499d565b9150506112bb565b505050565b611534611c63565b73ffffffffffffffffffffffffffffffffffffffff166115526115e5565b73ffffffffffffffffffffffffffffffffffffffff16146115a8576040517f08c379a000000000000000000000000000000000000000000000000000000000815260040161159f906144af565b60405180910390fd5b6115b260006123e5565b565b60076020528060005260406000206000915054906101000a900460ff1681565b60006115e06006612149565b905090565b6000600360009054906101000a900473ffffffffffffffffffffffffffffffffffffffff16905090565b6116176133bc565b60048260ff161061165d576040517f08c379a0000000000000000000000000000000000000000000000000000000008152600401611654906143cf565b60405180910390fd5b60008260ff1614156116c1576009604051806060016040529081600082015481526020016001820160009054906101000a900460ff1660ff1660ff1681526020016001820160019054906101000a900460ff1660ff1660ff168152505090506117ee565b60018260ff16141561172557600b604051806060016040529081600082015481526020016001820160009054906101000a900460ff1660ff1660ff1681526020016001820160019054906101000a900460ff1660ff1660ff168152505090506117ee565b60028260ff16141561178957600d604051806060016040529081600082015481526020016001820160009054906101000a900460ff1660ff1660ff1681526020016001820160019054906101000a900460ff1660ff1660ff168152505090506117ee565b60038260ff1614156117ed57600f604051806060016040529081600082015481526020016001820160009054906101000a900460ff1660ff1660ff1681526020016001820160019054906101000a900460ff1660ff1660ff168152505090506117ee565b5b919050565b60006004600084815260200190815260200160002060000160008373ffffffffffffffffffffffffffffffffffffffff1673ffffffffffffffffffffffffffffffffffffffff16815260200190815260200160002060009054906101000a900460ff16905092915050565b60008061186a8361160f565b9050806040015160ff16915050919050565b6040518060400160405280600481526020017f444142420000000000000000000000000000000000000000000000000000000081525081565b601360009054906101000a900460ff1681565b6000801b81565b6118e16118da611c63565b83836124ab565b5050565b6118f0338383612618565b5050565b6118fd82610ab9565b61190e81611909611c63565b611fcb565b6119188383612303565b505050565b61271081565b61192b611c63565b73ffffffffffffffffffffffffffffffffffffffff166119496115e5565b73ffffffffffffffffffffffffffffffffffffffff161461199f576040517f08c379a0000000000000000000000000000000000000000000000000000000008152600401611996906144af565b60405180910390fd5b80601360006101000a81548160ff02191690831515021790555050565b6000600160008473ffffffffffffffffffffffffffffffffffffffff1673ffffffffffffffffffffffffffffffffffffffff16815260200190815260200160002060008373ffffffffffffffffffffffffffffffffffffffff1673ffffffffffffffffffffffffffffffffffffffff16815260200190815260200160002060009054906101000a900460ff16905092915050565b611a58611c63565b73ffffffffffffffffffffffffffffffffffffffff168573ffffffffffffffffffffffffffffffffffffffff161480611a9e5750611a9d85611a98611c63565b6119bc565b5b611add576040517f08c379a0000000000000000000000000000000000000000000000000000000008152600401611ad4906143af565b60405180910390fd5b611aea8585858585612835565b5050505050565b611af9611c63565b73ffffffffffffffffffffffffffffffffffffffff16611b176115e5565b73ffffffffffffffffffffffffffffffffffffffff1614611b6d576040517f08c379a0000000000000000000000000000000000000000000000000000000008152600401611b64906144af565b60405180910390fd5b600073ffffffffffffffffffffffffffffffffffffffff168173ffffffffffffffffffffffffffffffffffffffff161415611bdd576040517f08c379a0000000000000000000000000000000000000000000000000000000008152600401611bd49061436f565b60405180910390fd5b611be6816123e5565b50565b60007f7965db0b000000000000000000000000000000000000000000000000000000007bffffffffffffffffffffffffffffffffffffffffffffffffffffffff1916827bffffffffffffffffffffffffffffffffffffffffffffffffffffffff19161480611c5c5750611c5b82612ab7565b5b9050919050565b600033905090565b8151835114611caf576040517f08c379a0000000000000000000000000000000000000000000000000000000008152600401611ca69061454f565b60405180910390fd5b600073ffffffffffffffffffffffffffffffffffffffff168473ffffffffffffffffffffffffffffffffffffffff161415611d1f576040517f08c379a0000000000000000000000000000000000000000000000000000000008152600401611d169061442f565b60405180910390fd5b6000611d29611c63565b9050611d39818787878787612b99565b60005b8451811015611f36576000858281518110611d80577f4e487b7100000000000000000000000000000000000000000000000000000000600052603260045260246000fd5b602002602001015190506000858381518110611dc5577f4e487b7100000000000000000000000000000000000000000000000000000000600052603260045260246000fd5b60200260200101519050600080600084815260200190815260200160002060008b73ffffffffffffffffffffffffffffffffffffffff1673ffffffffffffffffffffffffffffffffffffffff16815260200190815260200160002054905081811015611e66576040517f08c379a0000000000000000000000000000000000000000000000000000000008152600401611e5d9061448f565b60405180910390fd5b81810360008085815260200190815260200160002060008c73ffffffffffffffffffffffffffffffffffffffff1673ffffffffffffffffffffffffffffffffffffffff168152602001908152602001600020819055508160008085815260200190815260200160002060008b73ffffffffffffffffffffffffffffffffffffffff1673ffffffffffffffffffffffffffffffffffffffff1681526020019081526020016000206000828254611f1b9190614793565b9250508190555050505080611f2f9061499d565b9050611d3c565b508473ffffffffffffffffffffffffffffffffffffffff168673ffffffffffffffffffffffffffffffffffffffff168273ffffffffffffffffffffffffffffffffffffffff167f4a39dc06d4c0dbc64b70af90fd698a233a518aa5d07e595d983b8c0526c8f7fb8787604051611fad929190614240565b60405180910390a4611fc3818787878787612ba1565b505050505050565b611fd582826117f3565b61206457611ffa8173ffffffffffffffffffffffffffffffffffffffff166014612d88565b6120088360001c6020612d88565b6040516020016120199291906140d0565b6040516020818303038152906040526040517f08c379a000000000000000000000000000000000000000000000000000000000815260040161205b91906142ad565b60405180910390fd5b5050565b61207282826117f3565b6121455760016004600084815260200190815260200160002060000160008373ffffffffffffffffffffffffffffffffffffffff1673ffffffffffffffffffffffffffffffffffffffff16815260200190815260200160002060006101000a81548160ff0219169083151502179055506120ea611c63565b73ffffffffffffffffffffffffffffffffffffffff168173ffffffffffffffffffffffffffffffffffffffff16837f2f8788117e7eff1d82e926ec794901d17c78024a50270940304540a733656f0d60405160405180910390a45b5050565b600081600001549050919050565b6001816000016000828254019250508190555050565b600073ffffffffffffffffffffffffffffffffffffffff168473ffffffffffffffffffffffffffffffffffffffff1614156121dd576040517f08c379a00000000000000000000000000000000000000000000000000000000081526004016121d49061456f565b60405180910390fd5b60006121e7611c63565b9050612208816000876121f988613082565b61220288613082565b87612b99565b8260008086815260200190815260200160002060008773ffffffffffffffffffffffffffffffffffffffff1673ffffffffffffffffffffffffffffffffffffffff16815260200190815260200160002060008282546122679190614793565b925050819055508473ffffffffffffffffffffffffffffffffffffffff16600073ffffffffffffffffffffffffffffffffffffffff168273ffffffffffffffffffffffffffffffffffffffff167fc3d58168c5ae7397731d063d5bbf3d657854427343f4c083240f7aacaa2d0f6287876040516122e5929190614625565b60405180910390a46122fc81600087878787613148565b5050505050565b61230d82826117f3565b156123e15760006004600084815260200190815260200160002060000160008373ffffffffffffffffffffffffffffffffffffffff1673ffffffffffffffffffffffffffffffffffffffff16815260200190815260200160002060006101000a81548160ff021916908315150217905550612386611c63565b73ffffffffffffffffffffffffffffffffffffffff168173ffffffffffffffffffffffffffffffffffffffff16837ff6391f5c32d9c69d2a47ea670b442974b53935d1edc7fd64eb21e047a839171b60405160405180910390a45b5050565b6000600360009054906101000a900473ffffffffffffffffffffffffffffffffffffffff16905081600360006101000a81548173ffffffffffffffffffffffffffffffffffffffff021916908373ffffffffffffffffffffffffffffffffffffffff1602179055508173ffffffffffffffffffffffffffffffffffffffff168173ffffffffffffffffffffffffffffffffffffffff167f8be0079c531659141344cd1fd0a4f28419497f9722a3daafe3b4186f6b6457e060405160405180910390a35050565b8173ffffffffffffffffffffffffffffffffffffffff168373ffffffffffffffffffffffffffffffffffffffff16141561251a576040517f08c379a00000000000000000000000000000000000000000000000000000000081526004016125119061450f565b60405180910390fd5b80600160008573ffffffffffffffffffffffffffffffffffffffff1673ffffffffffffffffffffffffffffffffffffffff16815260200190815260200160002060008473ffffffffffffffffffffffffffffffffffffffff1673ffffffffffffffffffffffffffffffffffffffff16815260200190815260200160002060006101000a81548160ff0219169083151502179055508173ffffffffffffffffffffffffffffffffffffffff168373ffffffffffffffffffffffffffffffffffffffff167f17307eab39ab6107e8899845ad3d59bd9653f200f220920489ca2b5937696c318360405161260b9190614277565b60405180910390a3505050565b600073ffffffffffffffffffffffffffffffffffffffff168373ffffffffffffffffffffffffffffffffffffffff161415612688576040517f08c379a000000000000000000000000000000000000000000000000000000000815260040161267f9061446f565b60405180910390fd5b6000612692611c63565b90506126c2818560006126a487613082565b6126ad87613082565b60405180602001604052806000815250612b99565b600080600085815260200190815260200160002060008673ffffffffffffffffffffffffffffffffffffffff1673ffffffffffffffffffffffffffffffffffffffff16815260200190815260200160002054905082811015612759576040517f08c379a00000000000000000000000000000000000000000000000000000000081526004016127509061438f565b60405180910390fd5b82810360008086815260200190815260200160002060008773ffffffffffffffffffffffffffffffffffffffff1673ffffffffffffffffffffffffffffffffffffffff16815260200190815260200160002081905550600073ffffffffffffffffffffffffffffffffffffffff168573ffffffffffffffffffffffffffffffffffffffff168373ffffffffffffffffffffffffffffffffffffffff167fc3d58168c5ae7397731d063d5bbf3d657854427343f4c083240f7aacaa2d0f628787604051612826929190614625565b60405180910390a45050505050565b600073ffffffffffffffffffffffffffffffffffffffff168473ffffffffffffffffffffffffffffffffffffffff1614156128a5576040517f08c379a000000000000000000000000000000000000000000000000000000000815260040161289c9061442f565b60405180910390fd5b60006128af611c63565b90506128cf8187876128c088613082565b6128c988613082565b87612b99565b600080600086815260200190815260200160002060008873ffffffffffffffffffffffffffffffffffffffff1673ffffffffffffffffffffffffffffffffffffffff16815260200190815260200160002054905083811015612966576040517f08c379a000000000000000000000000000000000000000000000000000000000815260040161295d9061448f565b60405180910390fd5b83810360008087815260200190815260200160002060008973ffffffffffffffffffffffffffffffffffffffff1673ffffffffffffffffffffffffffffffffffffffff168152602001908152602001600020819055508360008087815260200190815260200160002060008873ffffffffffffffffffffffffffffffffffffffff1673ffffffffffffffffffffffffffffffffffffffff1681526020019081526020016000206000828254612a1b9190614793565b925050819055508573ffffffffffffffffffffffffffffffffffffffff168773ffffffffffffffffffffffffffffffffffffffff168373ffffffffffffffffffffffffffffffffffffffff167fc3d58168c5ae7397731d063d5bbf3d657854427343f4c083240f7aacaa2d0f628888604051612a98929190614625565b60405180910390a4612aae828888888888613148565b50505050505050565b60007fd9b67a26000000000000000000000000000000000000000000000000000000007bffffffffffffffffffffffffffffffffffffffffffffffffffffffff1916827bffffffffffffffffffffffffffffffffffffffffffffffffffffffff19161480612b8257507f0e89341c000000000000000000000000000000000000000000000000000000007bffffffffffffffffffffffffffffffffffffffffffffffffffffffff1916827bffffffffffffffffffffffffffffffffffffffffffffffffffffffff1916145b80612b925750612b918261332f565b5b9050919050565b505050505050565b612bc08473ffffffffffffffffffffffffffffffffffffffff16613399565b15612d80578373ffffffffffffffffffffffffffffffffffffffff1663bc197c8187878686866040518663ffffffff1660e01b8152600401612c06959493929190614125565b602060405180830381600087803b158015612c2057600080fd5b505af1925050508015612c5157506040513d601f19601f82011682018060405250810190612c4e91906139c4565b60015b612cf757612c5d614a9d565b806308c379a01415612cba5750612c72615364565b80612c7d5750612cbc565b806040517f08c379a0000000000000000000000000000000000000000000000000000000008152600401612cb191906142ad565b60405180910390fd5b505b6040517f08c379a0000000000000000000000000000000000000000000000000000000008152600401612cee906142cf565b60405180910390fd5b63bc197c8160e01b7bffffffffffffffffffffffffffffffffffffffffffffffffffffffff1916817bffffffffffffffffffffffffffffffffffffffffffffffffffffffff191614612d7e576040517f08c379a0000000000000000000000000000000000000000000000000000000008152600401612d759061430f565b60405180910390fd5b505b505050505050565b606060006002836002612d9b91906147e9565b612da59190614793565b67ffffffffffffffff811115612de4577f4e487b7100000000000000000000000000000000000000000000000000000000600052604160045260246000fd5b6040519080825280601f01601f191660200182016040528015612e165781602001600182028036833780820191505090505b5090507f300000000000000000000000000000000000000000000000000000000000000081600081518110612e74577f4e487b7100000000000000000000000000000000000000000000000000000000600052603260045260246000fd5b60200101907effffffffffffffffffffffffffffffffffffffffffffffffffffffffffffff1916908160001a9053507f780000000000000000000000000000000000000000000000000000000000000081600181518110612efe577f4e487b7100000000000000000000000000000000000000000000000000000000600052603260045260246000fd5b60200101907effffffffffffffffffffffffffffffffffffffffffffffffffffffffffffff1916908160001a90535060006001846002612f3e91906147e9565b612f489190614793565b90505b6001811115613034577f3031323334353637383961626364656600000000000000000000000000000000600f861660108110612fb0577f4e487b7100000000000000000000000000000000000000000000000000000000600052603260045260246000fd5b1a60f81b828281518110612fed577f4e487b7100000000000000000000000000000000000000000000000000000000600052603260045260246000fd5b60200101907effffffffffffffffffffffffffffffffffffffffffffffffffffffffffffff1916908160001a905350600485901c94508061302d90614910565b9050612f4b565b5060008414613078576040517f08c379a000000000000000000000000000000000000000000000000000000000815260040161306f906142ef565b60405180910390fd5b8091505092915050565b60606000600167ffffffffffffffff8111156130c7577f4e487b7100000000000000000000000000000000000000000000000000000000600052604160045260246000fd5b6040519080825280602002602001820160405280156130f55781602001602082028036833780820191505090505b5090508281600081518110613133577f4e487b7100000000000000000000000000000000000000000000000000000000600052603260045260246000fd5b60200260200101818152505080915050919050565b6131678473ffffffffffffffffffffffffffffffffffffffff16613399565b15613327578373ffffffffffffffffffffffffffffffffffffffff1663f23a6e6187878686866040518663ffffffff1660e01b81526004016131ad95949392919061418d565b602060405180830381600087803b1580156131c757600080fd5b505af19250505080156131f857506040513d601f19601f820116820180604052508101906131f591906139c4565b60015b61329e57613204614a9d565b806308c379a014156132615750613219615364565b806132245750613263565b806040517f08c379a000000000000000000000000000000000000000000000000000000000815260040161325891906142ad565b60405180910390fd5b505b6040517f08c379a0000000000000000000000000000000000000000000000000000000008152600401613295906142cf565b60405180910390fd5b63f23a6e6160e01b7bffffffffffffffffffffffffffffffffffffffffffffffffffffffff1916817bffffffffffffffffffffffffffffffffffffffffffffffffffffffff191614613325576040517f08c379a000000000000000000000000000000000000000000000000000000000815260040161331c9061430f565b60405180910390fd5b505b505050505050565b60007f01ffc9a7000000000000000000000000000000000000000000000000000000007bffffffffffffffffffffffffffffffffffffffffffffffffffffffff1916827bffffffffffffffffffffffffffffffffffffffffffffffffffffffff1916149050919050565b6000808273ffffffffffffffffffffffffffffffffffffffff163b119050919050565b604051806060016040528060008152602001600060ff168152602001600060ff1681525090565b60006133f66133f18461468e565b614669565b9050808382526020820190508285602086028201111561341557600080fd5b60005b85811015613445578161342b88826134f9565b845260208401935060208301925050600181019050613418565b5050509392505050565b600061346261345d846146ba565b614669565b9050808382526020820190508285602086028201111561348157600080fd5b60005b858110156134b1578161349788826135e0565b845260208401935060208301925050600181019050613484565b5050509392505050565b60006134ce6134c9846146e6565b614669565b9050828152602081018484840111156134e657600080fd5b6134f18482856148ce565b509392505050565b600081359050613508816153fa565b92915050565b600082601f83011261351f57600080fd5b813561352f8482602086016133e3565b91505092915050565b600082601f83011261354957600080fd5b813561355984826020860161344f565b91505092915050565b60008135905061357181615411565b92915050565b60008135905061358681615428565b92915050565b60008135905061359b8161543f565b92915050565b6000815190506135b08161543f565b92915050565b600082601f8301126135c757600080fd5b81356135d78482602086016134bb565b91505092915050565b6000813590506135ef81615456565b92915050565b6000813590506136048161546d565b92915050565b60006020828403121561361c57600080fd5b600061362a848285016134f9565b91505092915050565b6000806040838503121561364657600080fd5b6000613654858286016134f9565b9250506020613665858286016134f9565b9150509250929050565b600080600080600060a0868803121561368757600080fd5b6000613695888289016134f9565b95505060206136a6888289016134f9565b945050604086013567ffffffffffffffff8111156136c357600080fd5b6136cf88828901613538565b935050606086013567ffffffffffffffff8111156136ec57600080fd5b6136f888828901613538565b925050608086013567ffffffffffffffff81111561371557600080fd5b613721888289016135b6565b9150509295509295909350565b600080600080600060a0868803121561374657600080fd5b6000613754888289016134f9565b9550506020613765888289016134f9565b9450506040613776888289016135e0565b9350506060613787888289016135e0565b925050608086013567ffffffffffffffff8111156137a457600080fd5b6137b0888289016135b6565b9150509295509295909350565b600080604083850312156137d057600080fd5b60006137de858286016134f9565b92505060206137ef85828601613562565b9150509250929050565b6000806040838503121561380c57600080fd5b600061381a858286016134f9565b925050602061382b858286016135e0565b9150509250929050565b6000806040838503121561384857600080fd5b600083013567ffffffffffffffff81111561386257600080fd5b61386e8582860161350e565b925050602083013567ffffffffffffffff81111561388b57600080fd5b61389785828601613538565b9150509250929050565b600080604083850312156138b457600080fd5b600083013567ffffffffffffffff8111156138ce57600080fd5b6138da85828601613538565b925050602083013567ffffffffffffffff8111156138f757600080fd5b61390385828601613538565b9150509250929050565b60006020828403121561391f57600080fd5b600061392d84828501613562565b91505092915050565b60006020828403121561394857600080fd5b600061395684828501613577565b91505092915050565b6000806040838503121561397257600080fd5b600061398085828601613577565b9250506020613991858286016134f9565b9150509250929050565b6000602082840312156139ad57600080fd5b60006139bb8482850161358c565b91505092915050565b6000602082840312156139d657600080fd5b60006139e4848285016135a1565b91505092915050565b6000602082840312156139ff57600080fd5b6000613a0d848285016135e0565b91505092915050565b60008060408385031215613a2957600080fd5b6000613a37858286016135e0565b9250506020613a48858286016135e0565b9150509250929050565b600060208284031215613a6457600080fd5b6000613a72848285016135f5565b91505092915050565b6000613a878383614040565b60208301905092915050565b613a9c81614843565b82525050565b6000613aad82614727565b613ab78185614755565b9350613ac283614717565b8060005b83811015613af3578151613ada8882613a7b565b9750613ae583614748565b925050600181019050613ac6565b5085935050505092915050565b613b0981614855565b82525050565b613b1881614861565b82525050565b6000613b2982614732565b613b338185614766565b9350613b438185602086016148dd565b613b4c81614abf565b840191505092915050565b6000613b628261473d565b613b6c8185614777565b9350613b7c8185602086016148dd565b613b8581614abf565b840191505092915050565b6000613b9b8261473d565b613ba58185614788565b9350613bb58185602086016148dd565b80840191505092915050565b6000613bce603483614777565b9150613bd982614add565b604082019050919050565b6000613bf1604e83614788565b9150613bfc82614b2c565b604e82019050919050565b6000613c14602083614777565b9150613c1f82614ba1565b602082019050919050565b6000613c37602883614777565b9150613c4282614bca565b604082019050919050565b6000613c5a601b83614777565b9150613c6582614c19565b602082019050919050565b6000613c7d602b83614777565b9150613c8882614c42565b604082019050919050565b6000613ca0602683614777565b9150613cab82614c91565b604082019050919050565b6000613cc3604c83614788565b9150613cce82614ce0565b604c82019050919050565b6000613ce6602483614777565b9150613cf182614d55565b604082019050919050565b6000613d09602983614777565b9150613d1482614da4565b604082019050919050565b6000613d2c601483614777565b9150613d3782614df3565b602082019050919050565b6000613d4f603083614777565b9150613d5a82614e1c565b604082019050919050565b6000613d72601f83614777565b9150613d7d82614e6b565b602082019050919050565b6000613d95602583614777565b9150613da082614e94565b604082019050919050565b6000613db8603283614777565b9150613dc382614ee3565b604082019050919050565b6000613ddb604b83614788565b9150613de682614f32565b604b82019050919050565b6000613dfe602383614777565b9150613e0982614fa7565b604082019050919050565b6000613e21602a83614777565b9150613e2c82614ff6565b604082019050919050565b6000613e44604b83614788565b9150613e4f82615045565b604b82019050919050565b6000613e67602083614777565b9150613e72826150ba565b602082019050919050565b6000613e8a601583614777565b9150613e95826150e3565b602082019050919050565b6000613ead601383614777565b9150613eb88261510c565b602082019050919050565b6000613ed0601783614788565b9150613edb82615135565b601782019050919050565b6000613ef3602983614777565b9150613efe8261515e565b604082019050919050565b6000613f16602983614777565b9150613f21826151ad565b604082019050919050565b6000613f39602883614777565b9150613f44826151fc565b604082019050919050565b6000613f5c602183614777565b9150613f678261524b565b604082019050919050565b6000613f7f601f83614777565b9150613f8a8261529a565b602082019050919050565b6000613fa2601583614777565b9150613fad826152c3565b602082019050919050565b6000613fc5601183614788565b9150613fd0826152ec565b601182019050919050565b6000613fe8602f83614777565b9150613ff382615315565b604082019050919050565b6060820160008201516140146000850182614040565b506020820151614027602085018261405e565b50604082015161403a604085018261405e565b50505050565b614049816148b7565b82525050565b614058816148b7565b82525050565b614067816148c1565b82525050565b614076816148c1565b82525050565b600061408782613be4565b9150819050919050565b600061409c82613cb6565b9150819050919050565b60006140b182613dce565b9150819050919050565b60006140c682613e37565b9150819050919050565b60006140db82613ec3565b91506140e78285613b90565b91506140f282613fb8565b91506140fe8284613b90565b91508190509392505050565b600060208201905061411f6000830184613a93565b92915050565b600060a08201905061413a6000830188613a93565b6141476020830187613a93565b81810360408301526141598186613aa2565b9050818103606083015261416d8185613aa2565b905081810360808301526141818184613b1e565b90509695505050505050565b600060a0820190506141a26000830188613a93565b6141af6020830187613a93565b6141bc604083018661404f565b6141c9606083018561404f565b81810360808301526141db8184613b1e565b90509695505050505050565b60006060820190506141fc6000830186613a93565b614209602083018561404f565b614216604083018461406d565b949350505050565b600060208201905081810360008301526142388184613aa2565b905092915050565b6000604082019050818103600083015261425a8185613aa2565b9050818103602083015261426e8184613aa2565b90509392505050565b600060208201905061428c6000830184613b00565b92915050565b60006020820190506142a76000830184613b0f565b92915050565b600060208201905081810360008301526142c78184613b57565b905092915050565b600060208201905081810360008301526142e881613bc1565b9050919050565b6000602082019050818103600083015261430881613c07565b9050919050565b6000602082019050818103600083015261432881613c2a565b9050919050565b6000602082019050818103600083015261434881613c4d565b9050919050565b6000602082019050818103600083015261436881613c70565b9050919050565b6000602082019050818103600083015261438881613c93565b9050919050565b600060208201905081810360008301526143a881613cd9565b9050919050565b600060208201905081810360008301526143c881613cfc565b9050919050565b600060208201905081810360008301526143e881613d1f565b9050919050565b6000602082019050818103600083015261440881613d42565b9050919050565b6000602082019050818103600083015261442881613d65565b9050919050565b6000602082019050818103600083015261444881613d88565b9050919050565b6000602082019050818103600083015261446881613dab565b9050919050565b6000602082019050818103600083015261448881613df1565b9050919050565b600060208201905081810360008301526144a881613e14565b9050919050565b600060208201905081810360008301526144c881613e5a565b9050919050565b600060208201905081810360008301526144e881613e7d565b9050919050565b6000602082019050818103600083015261450881613ea0565b9050919050565b6000602082019050818103600083015261452881613ee6565b9050919050565b6000602082019050818103600083015261454881613f09565b9050919050565b6000602082019050818103600083015261456881613f2c565b9050919050565b6000602082019050818103600083015261458881613f4f565b9050919050565b600060208201905081810360008301526145a881613f72565b9050919050565b600060208201905081810360008301526145c881613f95565b9050919050565b600060208201905081810360008301526145e881613fdb565b9050919050565b60006060820190506146046000830184613ffe565b92915050565b600060208201905061461f600083018461404f565b92915050565b600060408201905061463a600083018561404f565b614647602083018461404f565b9392505050565b6000602082019050614663600083018461406d565b92915050565b6000614673614684565b905061467f828261496c565b919050565b6000604051905090565b600067ffffffffffffffff8211156146a9576146a8614a6e565b5b602082029050602081019050919050565b600067ffffffffffffffff8211156146d5576146d4614a6e565b5b602082029050602081019050919050565b600067ffffffffffffffff82111561470157614700614a6e565b5b61470a82614abf565b9050602081019050919050565b6000819050602082019050919050565b600081519050919050565b600081519050919050565b600081519050919050565b6000602082019050919050565b600082825260208201905092915050565b600082825260208201905092915050565b600082825260208201905092915050565b600081905092915050565b600061479e826148b7565b91506147a9836148b7565b9250827fffffffffffffffffffffffffffffffffffffffffffffffffffffffffffffffff038211156147de576147dd614a10565b5b828201905092915050565b60006147f4826148b7565b91506147ff836148b7565b9250817fffffffffffffffffffffffffffffffffffffffffffffffffffffffffffffffff048311821515161561483857614837614a10565b5b828202905092915050565b600061484e82614897565b9050919050565b60008115159050919050565b6000819050919050565b60007fffffffff0000000000000000000000000000000000000000000000000000000082169050919050565b600073ffffffffffffffffffffffffffffffffffffffff82169050919050565b6000819050919050565b600060ff82169050919050565b82818337600083830152505050565b60005b838110156148fb5780820151818401526020810190506148e0565b8381111561490a576000848401525b50505050565b600061491b826148b7565b9150600082141561492f5761492e614a10565b5b600182039050919050565b6000600282049050600182168061495257607f821691505b6020821081141561496657614965614a3f565b5b50919050565b61497582614abf565b810181811067ffffffffffffffff8211171561499457614993614a6e565b5b80604052505050565b60006149a8826148b7565b91507fffffffffffffffffffffffffffffffffffffffffffffffffffffffffffffffff8214156149db576149da614a10565b5b600182019050919050565b60006149f1826148c1565b915060ff821415614a0557614a04614a10565b5b600182019050919050565b7f4e487b7100000000000000000000000000000000000000000000000000000000600052601160045260246000fd5b7f4e487b7100000000000000000000000000000000000000000000000000000000600052602260045260246000fd5b7f4e487b7100000000000000000000000000000000000000000000000000000000600052604160045260246000fd5b600060033d1115614abc5760046000803e614ab9600051614ad0565b90505b90565b6000601f19601f8301169050919050565b60008160e01c9050919050565b7f455243313135353a207472616e7366657220746f206e6f6e204552433131353560008201527f526563656976657220696d706c656d656e746572000000000000000000000000602082015250565b7f68747470733a2f2f7261772e67697468756275736572636f6e74656e742e636f60008201527f6d2f416e647957616948696d2f4d794d657461646174612f6d61696e2f646f6760208201527f2f6c6162726164726f2e6a736f6e000000000000000000000000000000000000604082015250565b7f537472696e67733a20686578206c656e67746820696e73756666696369656e74600082015250565b7f455243313135353a204552433131353552656365697665722072656a6563746560008201527f6420746f6b656e73000000000000000000000000000000000000000000000000602082015250565b7f416464726573732068617320616c7265616479206d696e746564210000000000600082015250565b7f455243313135353a2062616c616e636520717565727920666f7220746865207a60008201527f65726f2061646472657373000000000000000000000000000000000000000000602082015250565b7f4f776e61626c653a206e6577206f776e657220697320746865207a65726f206160008201527f6464726573730000000000000000000000000000000000000000000000000000602082015250565b7f68747470733a2f2f7261772e67697468756275736572636f6e74656e742e636f60008201527f6d2f416e647957616948696d2f4d794d657461646174612f6d61696e2f646f6760208201527f2f6879627269642e6a736f6e0000000000000000000000000000000000000000604082015250565b7f455243313135353a206275726e20616d6f756e7420657863656564732062616c60008201527f616e636500000000000000000000000000000000000000000000000000000000602082015250565b7f455243313135353a2063616c6c6572206973206e6f74206f776e6572206e6f7260008201527f20617070726f7665640000000000000000000000000000000000000000000000602082015250565b7f496e76616c6964207061636b6167652074797065000000000000000000000000600082015250565b7f6e65775072696365206c656e677468206d75737420626520657175616c20746f60008201527f207061636b54797065206c656e67746800000000000000000000000000000000602082015250565b7f4d617469632076616c75652073656e74206973206e6f7420636f727265637400600082015250565b7f455243313135353a207472616e7366657220746f20746865207a65726f20616460008201527f6472657373000000000000000000000000000000000000000000000000000000602082015250565b7f455243313135353a207472616e736665722063616c6c6572206973206e6f742060008201527f6f776e6572206e6f7220617070726f7665640000000000000000000000000000602082015250565b7f68747470733a2f2f7261772e67697468756275736572636f6e74656e742e636f60008201527f6d2f416e647957616948696d2f4d794d657461646174612f6d61696e2f646f6760208201527f2f616b6974612e6a736f6e000000000000000000000000000000000000000000604082015250565b7f455243313135353a206275726e2066726f6d20746865207a65726f206164647260008201527f6573730000000000000000000000000000000000000000000000000000000000602082015250565b7f455243313135353a20696e73756666696369656e742062616c616e636520666f60008201527f72207472616e7366657200000000000000000000000000000000000000000000602082015250565b7f68747470733a2f2f7261772e67697468756275736572636f6e74656e742e636f60008201527f6d2f416e647957616948696d2f4d794d657461646174612f6d61696e2f646f6760208201527f2f73686962612e6a736f6e000000000000000000000000000000000000000000604082015250565b7f4f776e61626c653a2063616c6c6572206973206e6f7420746865206f776e6572600082015250565b7f53616c65206973206e6f74206f70656e20796574210000000000000000000000600082015250565b7f4d617820737570706c7920726561636865642100000000000000000000000000600082015250565b7f416363657373436f6e74726f6c3a206163636f756e7420000000000000000000600082015250565b7f455243313135353a2073657474696e6720617070726f76616c2073746174757360008201527f20666f722073656c660000000000000000000000000000000000000000000000602082015250565b7f455243313135353a206163636f756e747320616e6420696473206c656e67746860008201527f206d69736d617463680000000000000000000000000000000000000000000000602082015250565b7f455243313135353a2069647320616e6420616d6f756e7473206c656e6774682060008201527f6d69736d61746368000000000000000000000000000000000000000000000000602082015250565b7f455243313135353a206d696e7420746f20746865207a65726f2061646472657360008201527f7300000000000000000000000000000000000000000000000000000000000000602082015250565b7f5265656e7472616e637947756172643a207265656e7472616e742063616c6c00600082015250565b7f73616c65206973206e6f74206f70656e206e6f77210000000000000000000000600082015250565b7f206973206d697373696e6720726f6c6520000000000000000000000000000000600082015250565b7f416363657373436f6e74726f6c3a2063616e206f6e6c792072656e6f756e636560008201527f20726f6c657320666f722073656c660000000000000000000000000000000000602082015250565b600060443d1015615374576153f7565b61537c614684565b60043d036004823e80513d602482011167ffffffffffffffff821117156153a45750506153f7565b808201805167ffffffffffffffff8111156153c257505050506153f7565b80602083010160043d0385018111156153df5750505050506153f7565b6153ee8260200185018661496c565b82955050505050505b90565b61540381614843565b811461540e57600080fd5b50565b61541a81614855565b811461542557600080fd5b50565b61543181614861565b811461543c57600080fd5b50565b6154488161486b565b811461545357600080fd5b50565b61545f816148b7565b811461546a57600080fd5b50565b615476816148c1565b811461548157600080fd5b5056fea2646970667358221220d5f8575a791521b36bb6cd8f6072d28fd818f7a9ee5ede4f87ab7a1e9a2983d764736f6c63430008010033",
  "immutableReferences": {},
  "source": "/**\r\n *Submitted for verification at polygonscan.com on 2022-04-15\r\n */\r\n\r\n// Sources flattened with hardhat v2.9.2 https://hardhat.org\r\n\r\n// File @openzeppelin/contracts/utils/introspection/IERC165.sol@v4.5.0\r\n\r\n// SPDX-License-Identifier: MIT\r\n// OpenZeppelin Contracts v4.4.1 (utils/introspection/IERC165.sol)\r\n\r\npragma solidity ^0.8.0;\r\n\r\n/**\r\n * @dev Interface of the ERC165 standard, as defined in the\r\n * https://eips.ethereum.org/EIPS/eip-165[EIP].\r\n *\r\n * Implementers can declare support of contract interfaces, which can then be\r\n * queried by others ({ERC165Checker}).\r\n *\r\n * For an implementation, see {ERC165}.\r\n */\r\ninterface IERC165 {\r\n    /**\r\n     * @dev Returns true if this contract implements the interface defined by\r\n     * `interfaceId`. See the corresponding\r\n     * https://eips.ethereum.org/EIPS/eip-165#how-interfaces-are-identified[EIP section]\r\n     * to learn more about how these ids are created.\r\n     *\r\n     * This function call must use less than 30 000 gas.\r\n     */\r\n    function supportsInterface(bytes4 interfaceId) external view returns (bool);\r\n}\r\n\r\n// File @openzeppelin/contracts/token/ERC1155/IERC1155.sol@v4.5.0\r\n\r\n// OpenZeppelin Contracts v4.4.1 (token/ERC1155/IERC1155.sol)\r\n\r\npragma solidity ^0.8.0;\r\n\r\n/**\r\n * @dev Required interface of an ERC1155 compliant contract, as defined in the\r\n * https://eips.ethereum.org/EIPS/eip-1155[EIP].\r\n *\r\n * _Available since v3.1._\r\n */\r\ninterface IERC1155 is IERC165 {\r\n    /**\r\n     * @dev Emitted when `value` tokens of token type `id` are transferred from `from` to `to` by `operator`.\r\n     */\r\n    event TransferSingle(\r\n        address indexed operator,\r\n        address indexed from,\r\n        address indexed to,\r\n        uint256 id,\r\n        uint256 value\r\n    );\r\n\r\n    /**\r\n     * @dev Equivalent to multiple {TransferSingle} events, where `operator`, `from` and `to` are the same for all\r\n     * transfers.\r\n     */\r\n    event TransferBatch(\r\n        address indexed operator,\r\n        address indexed from,\r\n        address indexed to,\r\n        uint256[] ids,\r\n        uint256[] values\r\n    );\r\n\r\n    /**\r\n     * @dev Emitted when `account` grants or revokes permission to `operator` to transfer their tokens, according to\r\n     * `approved`.\r\n     */\r\n    event ApprovalForAll(\r\n        address indexed account,\r\n        address indexed operator,\r\n        bool approved\r\n    );\r\n\r\n    /**\r\n     * @dev Emitted when the URI for token type `id` changes to `value`, if it is a non-programmatic URI.\r\n     *\r\n     * If an {URI} event was emitted for `id`, the standard\r\n     * https://eips.ethereum.org/EIPS/eip-1155#metadata-extensions[guarantees] that `value` will equal the value\r\n     * returned by {IERC1155MetadataURI-uri}.\r\n     */\r\n    event URI(string value, uint256 indexed id);\r\n\r\n    /**\r\n     * @dev Returns the amount of tokens of token type `id` owned by `account`.\r\n     *\r\n     * Requirements:\r\n     *\r\n     * - `account` cannot be the zero address.\r\n     */\r\n    function balanceOf(address account, uint256 id)\r\n        external\r\n        view\r\n        returns (uint256);\r\n\r\n    /**\r\n     * @dev xref:ROOT:erc1155.adoc#batch-operations[Batched] version of {balanceOf}.\r\n     *\r\n     * Requirements:\r\n     *\r\n     * - `accounts` and `ids` must have the same length.\r\n     */\r\n    function balanceOfBatch(address[] calldata accounts, uint256[] calldata ids)\r\n        external\r\n        view\r\n        returns (uint256[] memory);\r\n\r\n    /**\r\n     * @dev Grants or revokes permission to `operator` to transfer the caller's tokens, according to `approved`,\r\n     *\r\n     * Emits an {ApprovalForAll} event.\r\n     *\r\n     * Requirements:\r\n     *\r\n     * - `operator` cannot be the caller.\r\n     */\r\n    function setApprovalForAll(address operator, bool approved) external;\r\n\r\n    /**\r\n     * @dev Returns true if `operator` is approved to transfer ``account``'s tokens.\r\n     *\r\n     * See {setApprovalForAll}.\r\n     */\r\n    function isApprovedForAll(address account, address operator)\r\n        external\r\n        view\r\n        returns (bool);\r\n\r\n    /**\r\n     * @dev Transfers `amount` tokens of token type `id` from `from` to `to`.\r\n     *\r\n     * Emits a {TransferSingle} event.\r\n     *\r\n     * Requirements:\r\n     *\r\n     * - `to` cannot be the zero address.\r\n     * - If the caller is not `from`, it must be have been approved to spend ``from``'s tokens via {setApprovalForAll}.\r\n     * - `from` must have a balance of tokens of type `id` of at least `amount`.\r\n     * - If `to` refers to a smart contract, it must implement {IERC1155Receiver-onERC1155Received} and return the\r\n     * acceptance magic value.\r\n     */\r\n    function safeTransferFrom(\r\n        address from,\r\n        address to,\r\n        uint256 id,\r\n        uint256 amount,\r\n        bytes calldata data\r\n    ) external;\r\n\r\n    /**\r\n     * @dev xref:ROOT:erc1155.adoc#batch-operations[Batched] version of {safeTransferFrom}.\r\n     *\r\n     * Emits a {TransferBatch} event.\r\n     *\r\n     * Requirements:\r\n     *\r\n     * - `ids` and `amounts` must have the same length.\r\n     * - If `to` refers to a smart contract, it must implement {IERC1155Receiver-onERC1155BatchReceived} and return the\r\n     * acceptance magic value.\r\n     */\r\n    function safeBatchTransferFrom(\r\n        address from,\r\n        address to,\r\n        uint256[] calldata ids,\r\n        uint256[] calldata amounts,\r\n        bytes calldata data\r\n    ) external;\r\n}\r\n\r\n// File @openzeppelin/contracts/token/ERC1155/IERC1155Receiver.sol@v4.5.0\r\n\r\n// OpenZeppelin Contracts (last updated v4.5.0) (token/ERC1155/IERC1155Receiver.sol)\r\n\r\npragma solidity ^0.8.0;\r\n\r\n/**\r\n * @dev _Available since v3.1._\r\n */\r\ninterface IERC1155Receiver is IERC165 {\r\n    /**\r\n     * @dev Handles the receipt of a single ERC1155 token type. This function is\r\n     * called at the end of a `safeTransferFrom` after the balance has been updated.\r\n     *\r\n     * NOTE: To accept the transfer, this must return\r\n     * `bytes4(keccak256(\"onERC1155Received(address,address,uint256,uint256,bytes)\"))`\r\n     * (i.e. 0xf23a6e61, or its own function selector).\r\n     *\r\n     * @param operator The address which initiated the transfer (i.e. msg.sender)\r\n     * @param from The address which previously owned the token\r\n     * @param id The ID of the token being transferred\r\n     * @param value The amount of tokens being transferred\r\n     * @param data Additional data with no specified format\r\n     * @return `bytes4(keccak256(\"onERC1155Received(address,address,uint256,uint256,bytes)\"))` if transfer is allowed\r\n     */\r\n    function onERC1155Received(\r\n        address operator,\r\n        address from,\r\n        uint256 id,\r\n        uint256 value,\r\n        bytes calldata data\r\n    ) external returns (bytes4);\r\n\r\n    /**\r\n     * @dev Handles the receipt of a multiple ERC1155 token types. This function\r\n     * is called at the end of a `safeBatchTransferFrom` after the balances have\r\n     * been updated.\r\n     *\r\n     * NOTE: To accept the transfer(s), this must return\r\n     * `bytes4(keccak256(\"onERC1155BatchReceived(address,address,uint256[],uint256[],bytes)\"))`\r\n     * (i.e. 0xbc197c81, or its own function selector).\r\n     *\r\n     * @param operator The address which initiated the batch transfer (i.e. msg.sender)\r\n     * @param from The address which previously owned the token\r\n     * @param ids An array containing ids of each token being transferred (order and length must match values array)\r\n     * @param values An array containing amounts of each token being transferred (order and length must match ids array)\r\n     * @param data Additional data with no specified format\r\n     * @return `bytes4(keccak256(\"onERC1155BatchReceived(address,address,uint256[],uint256[],bytes)\"))` if transfer is allowed\r\n     */\r\n    function onERC1155BatchReceived(\r\n        address operator,\r\n        address from,\r\n        uint256[] calldata ids,\r\n        uint256[] calldata values,\r\n        bytes calldata data\r\n    ) external returns (bytes4);\r\n}\r\n\r\n// File @openzeppelin/contracts/token/ERC1155/extensions/IERC1155MetadataURI.sol@v4.5.0\r\n\r\n// OpenZeppelin Contracts v4.4.1 (token/ERC1155/extensions/IERC1155MetadataURI.sol)\r\n\r\npragma solidity ^0.8.0;\r\n\r\n/**\r\n * @dev Interface of the optional ERC1155MetadataExtension interface, as defined\r\n * in the https://eips.ethereum.org/EIPS/eip-1155#metadata-extensions[EIP].\r\n *\r\n * _Available since v3.1._\r\n */\r\ninterface IERC1155MetadataURI is IERC1155 {\r\n    /**\r\n     * @dev Returns the URI for token type `id`.\r\n     *\r\n     * If the `\\{id\\}` substring is present in the URI, it must be replaced by\r\n     * clients with the actual token type ID.\r\n     */\r\n    function uri(uint256 id) external view returns (string memory);\r\n}\r\n\r\n// File @openzeppelin/contracts/utils/Address.sol@v4.5.0\r\n\r\n// OpenZeppelin Contracts (last updated v4.5.0) (utils/Address.sol)\r\n\r\npragma solidity ^0.8.1;\r\n\r\n/**\r\n * @dev Collection of functions related to the address type\r\n */\r\nlibrary Address {\r\n    /**\r\n     * @dev Returns true if `account` is a contract.\r\n     *\r\n     * [IMPORTANT]\r\n     * ====\r\n     * It is unsafe to assume that an address for which this function returns\r\n     * false is an externally-owned account (EOA) and not a contract.\r\n     *\r\n     * Among others, `isContract` will return false for the following\r\n     * types of addresses:\r\n     *\r\n     *  - an externally-owned account\r\n     *  - a contract in construction\r\n     *  - an address where a contract will be created\r\n     *  - an address where a contract lived, but was destroyed\r\n     * ====\r\n     *\r\n     * [IMPORTANT]\r\n     * ====\r\n     * You shouldn't rely on `isContract` to protect against flash loan attacks!\r\n     *\r\n     * Preventing calls from contracts is highly discouraged. It breaks composability, breaks support for smart wallets\r\n     * like Gnosis Safe, and does not provide security since it can be circumvented by calling from a contract\r\n     * constructor.\r\n     * ====\r\n     */\r\n    function isContract(address account) internal view returns (bool) {\r\n        // This method relies on extcodesize/address.code.length, which returns 0\r\n        // for contracts in construction, since the code is only stored at the end\r\n        // of the constructor execution.\r\n\r\n        return account.code.length > 0;\r\n    }\r\n\r\n    /**\r\n     * @dev Replacement for Solidity's `transfer`: sends `amount` wei to\r\n     * `recipient`, forwarding all available gas and reverting on errors.\r\n     *\r\n     * https://eips.ethereum.org/EIPS/eip-1884[EIP1884] increases the gas cost\r\n     * of certain opcodes, possibly making contracts go over the 2300 gas limit\r\n     * imposed by `transfer`, making them unable to receive funds via\r\n     * `transfer`. {sendValue} removes this limitation.\r\n     *\r\n     * https://diligence.consensys.net/posts/2019/09/stop-using-soliditys-transfer-now/[Learn more].\r\n     *\r\n     * IMPORTANT: because control is transferred to `recipient`, care must be\r\n     * taken to not create reentrancy vulnerabilities. Consider using\r\n     * {ReentrancyGuard} or the\r\n     * https://solidity.readthedocs.io/en/v0.5.11/security-considerations.html#use-the-checks-effects-interactions-pattern[checks-effects-interactions pattern].\r\n     */\r\n    function sendValue(address payable recipient, uint256 amount) internal {\r\n        require(\r\n            address(this).balance >= amount,\r\n            \"Address: insufficient balance\"\r\n        );\r\n\r\n        (bool success, ) = recipient.call{value: amount}(\"\");\r\n        require(\r\n            success,\r\n            \"Address: unable to send value, recipient may have reverted\"\r\n        );\r\n    }\r\n\r\n    /**\r\n     * @dev Performs a Solidity function call using a low level `call`. A\r\n     * plain `call` is an unsafe replacement for a function call: use this\r\n     * function instead.\r\n     *\r\n     * If `target` reverts with a revert reason, it is bubbled up by this\r\n     * function (like regular Solidity function calls).\r\n     *\r\n     * Returns the raw returned data. To convert to the expected return value,\r\n     * use https://solidity.readthedocs.io/en/latest/units-and-global-variables.html?highlight=abi.decode#abi-encoding-and-decoding-functions[`abi.decode`].\r\n     *\r\n     * Requirements:\r\n     *\r\n     * - `target` must be a contract.\r\n     * - calling `target` with `data` must not revert.\r\n     *\r\n     * _Available since v3.1._\r\n     */\r\n    function functionCall(address target, bytes memory data)\r\n        internal\r\n        returns (bytes memory)\r\n    {\r\n        return functionCall(target, data, \"Address: low-level call failed\");\r\n    }\r\n\r\n    /**\r\n     * @dev Same as {xref-Address-functionCall-address-bytes-}[`functionCall`], but with\r\n     * `errorMessage` as a fallback revert reason when `target` reverts.\r\n     *\r\n     * _Available since v3.1._\r\n     */\r\n    function functionCall(\r\n        address target,\r\n        bytes memory data,\r\n        string memory errorMessage\r\n    ) internal returns (bytes memory) {\r\n        return functionCallWithValue(target, data, 0, errorMessage);\r\n    }\r\n\r\n    /**\r\n     * @dev Same as {xref-Address-functionCall-address-bytes-}[`functionCall`],\r\n     * but also transferring `value` wei to `target`.\r\n     *\r\n     * Requirements:\r\n     *\r\n     * - the calling contract must have an ETH balance of at least `value`.\r\n     * - the called Solidity function must be `payable`.\r\n     *\r\n     * _Available since v3.1._\r\n     */\r\n    function functionCallWithValue(\r\n        address target,\r\n        bytes memory data,\r\n        uint256 value\r\n    ) internal returns (bytes memory) {\r\n        return\r\n            functionCallWithValue(\r\n                target,\r\n                data,\r\n                value,\r\n                \"Address: low-level call with value failed\"\r\n            );\r\n    }\r\n\r\n    /**\r\n     * @dev Same as {xref-Address-functionCallWithValue-address-bytes-uint256-}[`functionCallWithValue`], but\r\n     * with `errorMessage` as a fallback revert reason when `target` reverts.\r\n     *\r\n     * _Available since v3.1._\r\n     */\r\n    function functionCallWithValue(\r\n        address target,\r\n        bytes memory data,\r\n        uint256 value,\r\n        string memory errorMessage\r\n    ) internal returns (bytes memory) {\r\n        require(\r\n            address(this).balance >= value,\r\n            \"Address: insufficient balance for call\"\r\n        );\r\n        require(isContract(target), \"Address: call to non-contract\");\r\n\r\n        (bool success, bytes memory returndata) = target.call{value: value}(\r\n            data\r\n        );\r\n        return verifyCallResult(success, returndata, errorMessage);\r\n    }\r\n\r\n    /**\r\n     * @dev Same as {xref-Address-functionCall-address-bytes-}[`functionCall`],\r\n     * but performing a static call.\r\n     *\r\n     * _Available since v3.3._\r\n     */\r\n    function functionStaticCall(address target, bytes memory data)\r\n        internal\r\n        view\r\n        returns (bytes memory)\r\n    {\r\n        return\r\n            functionStaticCall(\r\n                target,\r\n                data,\r\n                \"Address: low-level static call failed\"\r\n            );\r\n    }\r\n\r\n    /**\r\n     * @dev Same as {xref-Address-functionCall-address-bytes-string-}[`functionCall`],\r\n     * but performing a static call.\r\n     *\r\n     * _Available since v3.3._\r\n     */\r\n    function functionStaticCall(\r\n        address target,\r\n        bytes memory data,\r\n        string memory errorMessage\r\n    ) internal view returns (bytes memory) {\r\n        require(isContract(target), \"Address: static call to non-contract\");\r\n\r\n        (bool success, bytes memory returndata) = target.staticcall(data);\r\n        return verifyCallResult(success, returndata, errorMessage);\r\n    }\r\n\r\n    /**\r\n     * @dev Same as {xref-Address-functionCall-address-bytes-}[`functionCall`],\r\n     * but performing a delegate call.\r\n     *\r\n     * _Available since v3.4._\r\n     */\r\n    function functionDelegateCall(address target, bytes memory data)\r\n        internal\r\n        returns (bytes memory)\r\n    {\r\n        return\r\n            functionDelegateCall(\r\n                target,\r\n                data,\r\n                \"Address: low-level delegate call failed\"\r\n            );\r\n    }\r\n\r\n    /**\r\n     * @dev Same as {xref-Address-functionCall-address-bytes-string-}[`functionCall`],\r\n     * but performing a delegate call.\r\n     *\r\n     * _Available since v3.4._\r\n     */\r\n    function functionDelegateCall(\r\n        address target,\r\n        bytes memory data,\r\n        string memory errorMessage\r\n    ) internal returns (bytes memory) {\r\n        require(isContract(target), \"Address: delegate call to non-contract\");\r\n\r\n        (bool success, bytes memory returndata) = target.delegatecall(data);\r\n        return verifyCallResult(success, returndata, errorMessage);\r\n    }\r\n\r\n    /**\r\n     * @dev Tool to verifies that a low level call was successful, and revert if it wasn't, either by bubbling the\r\n     * revert reason using the provided one.\r\n     *\r\n     * _Available since v4.3._\r\n     */\r\n    function verifyCallResult(\r\n        bool success,\r\n        bytes memory returndata,\r\n        string memory errorMessage\r\n    ) internal pure returns (bytes memory) {\r\n        if (success) {\r\n            return returndata;\r\n        } else {\r\n            // Look for revert reason and bubble it up if present\r\n            if (returndata.length > 0) {\r\n                // The easiest way to bubble the revert reason is using memory via assembly\r\n\r\n                assembly {\r\n                    let returndata_size := mload(returndata)\r\n                    revert(add(32, returndata), returndata_size)\r\n                }\r\n            } else {\r\n                revert(errorMessage);\r\n            }\r\n        }\r\n    }\r\n}\r\n\r\n// File @openzeppelin/contracts/utils/Context.sol@v4.5.0\r\n\r\n// OpenZeppelin Contracts v4.4.1 (utils/Context.sol)\r\n\r\npragma solidity ^0.8.0;\r\n\r\n/**\r\n * @dev Provides information about the current execution context, including the\r\n * sender of the transaction and its data. While these are generally available\r\n * via msg.sender and msg.data, they should not be accessed in such a direct\r\n * manner, since when dealing with meta-transactions the account sending and\r\n * paying for execution may not be the actual sender (as far as an application\r\n * is concerned).\r\n *\r\n * This contract is only required for intermediate, library-like contracts.\r\n */\r\nabstract contract Context {\r\n    function _msgSender() internal view virtual returns (address) {\r\n        return msg.sender;\r\n    }\r\n\r\n    function _msgData() internal view virtual returns (bytes calldata) {\r\n        return msg.data;\r\n    }\r\n}\r\n\r\n// File @openzeppelin/contracts/utils/introspection/ERC165.sol@v4.5.0\r\n\r\n// OpenZeppelin Contracts v4.4.1 (utils/introspection/ERC165.sol)\r\n\r\npragma solidity ^0.8.0;\r\n\r\n/**\r\n * @dev Implementation of the {IERC165} interface.\r\n *\r\n * Contracts that want to implement ERC165 should inherit from this contract and override {supportsInterface} to check\r\n * for the additional interface id that will be supported. For example:\r\n *\r\n * ```solidity\r\n * function supportsInterface(bytes4 interfaceId) public view virtual override returns (bool) {\r\n *     return interfaceId == type(MyInterface).interfaceId || super.supportsInterface(interfaceId);\r\n * }\r\n * ```\r\n *\r\n * Alternatively, {ERC165Storage} provides an easier to use but more expensive implementation.\r\n */\r\nabstract contract ERC165 is IERC165 {\r\n    /**\r\n     * @dev See {IERC165-supportsInterface}.\r\n     */\r\n    function supportsInterface(bytes4 interfaceId)\r\n        public\r\n        view\r\n        virtual\r\n        override\r\n        returns (bool)\r\n    {\r\n        return interfaceId == type(IERC165).interfaceId;\r\n    }\r\n}\r\n\r\n// File @openzeppelin/contracts/token/ERC1155/ERC1155.sol@v4.5.0\r\n\r\n// OpenZeppelin Contracts v4.4.1 (token/ERC1155/ERC1155.sol)\r\n\r\npragma solidity ^0.8.0;\r\n\r\n/**\r\n * @dev Implementation of the basic standard multi-token.\r\n * See https://eips.ethereum.org/EIPS/eip-1155\r\n * Originally based on code by Enjin: https://github.com/enjin/erc-1155\r\n *\r\n * _Available since v3.1._\r\n */\r\ncontract ERC1155 is Context, ERC165, IERC1155, IERC1155MetadataURI {\r\n    using Address for address;\r\n\r\n    // Mapping from token ID to account balances\r\n    mapping(uint256 => mapping(address => uint256)) private _balances;\r\n\r\n    // Mapping from account to operator approvals\r\n    mapping(address => mapping(address => bool)) private _operatorApprovals;\r\n\r\n    // Used as the URI for all token types by relying on ID substitution, e.g. https://token-cdn-domain/{id}.json\r\n    string private _uri;\r\n\r\n    /**\r\n     * @dev See {_setURI}.\r\n     */\r\n    constructor(string memory uri_) {\r\n        _setURI(uri_);\r\n    }\r\n\r\n    /**\r\n     * @dev See {IERC165-supportsInterface}.\r\n     */\r\n    function supportsInterface(bytes4 interfaceId)\r\n        public\r\n        view\r\n        virtual\r\n        override(ERC165, IERC165)\r\n        returns (bool)\r\n    {\r\n        return\r\n            interfaceId == type(IERC1155).interfaceId ||\r\n            interfaceId == type(IERC1155MetadataURI).interfaceId ||\r\n            super.supportsInterface(interfaceId);\r\n    }\r\n\r\n    /**\r\n     * @dev See {IERC1155MetadataURI-uri}.\r\n     *\r\n     * This implementation returns the same URI for *all* token types. It relies\r\n     * on the token type ID substitution mechanism\r\n     * https://eips.ethereum.org/EIPS/eip-1155#metadata[defined in the EIP].\r\n     *\r\n     * Clients calling this function must replace the `\\{id\\}` substring with the\r\n     * actual token type ID.\r\n     */\r\n    function uri(uint256) public view virtual override returns (string memory) {\r\n        return _uri;\r\n    }\r\n\r\n    /**\r\n     * @dev See {IERC1155-balanceOf}.\r\n     *\r\n     * Requirements:\r\n     *\r\n     * - `account` cannot be the zero address.\r\n     */\r\n    function balanceOf(address account, uint256 id)\r\n        public\r\n        view\r\n        virtual\r\n        override\r\n        returns (uint256)\r\n    {\r\n        require(\r\n            account != address(0),\r\n            \"ERC1155: balance query for the zero address\"\r\n        );\r\n        return _balances[id][account];\r\n    }\r\n\r\n    /**\r\n     * @dev See {IERC1155-balanceOfBatch}.\r\n     *\r\n     * Requirements:\r\n     *\r\n     * - `accounts` and `ids` must have the same length.\r\n     */\r\n    function balanceOfBatch(address[] memory accounts, uint256[] memory ids)\r\n        public\r\n        view\r\n        virtual\r\n        override\r\n        returns (uint256[] memory)\r\n    {\r\n        require(\r\n            accounts.length == ids.length,\r\n            \"ERC1155: accounts and ids length mismatch\"\r\n        );\r\n\r\n        uint256[] memory batchBalances = new uint256[](accounts.length);\r\n\r\n        for (uint256 i = 0; i < accounts.length; ++i) {\r\n            batchBalances[i] = balanceOf(accounts[i], ids[i]);\r\n        }\r\n\r\n        return batchBalances;\r\n    }\r\n\r\n    /**\r\n     * @dev See {IERC1155-setApprovalForAll}.\r\n     */\r\n    function setApprovalForAll(address operator, bool approved)\r\n        public\r\n        virtual\r\n        override\r\n    {\r\n        _setApprovalForAll(_msgSender(), operator, approved);\r\n    }\r\n\r\n    /**\r\n     * @dev See {IERC1155-isApprovedForAll}.\r\n     */\r\n    function isApprovedForAll(address account, address operator)\r\n        public\r\n        view\r\n        virtual\r\n        override\r\n        returns (bool)\r\n    {\r\n        return _operatorApprovals[account][operator];\r\n    }\r\n\r\n    /**\r\n     * @dev See {IERC1155-safeTransferFrom}.\r\n     */\r\n    function safeTransferFrom(\r\n        address from,\r\n        address to,\r\n        uint256 id,\r\n        uint256 amount,\r\n        bytes memory data\r\n    ) public virtual override {\r\n        require(\r\n            from == _msgSender() || isApprovedForAll(from, _msgSender()),\r\n            \"ERC1155: caller is not owner nor approved\"\r\n        );\r\n        _safeTransferFrom(from, to, id, amount, data);\r\n    }\r\n\r\n    /**\r\n     * @dev See {IERC1155-safeBatchTransferFrom}.\r\n     */\r\n    function safeBatchTransferFrom(\r\n        address from,\r\n        address to,\r\n        uint256[] memory ids,\r\n        uint256[] memory amounts,\r\n        bytes memory data\r\n    ) public virtual override {\r\n        require(\r\n            from == _msgSender() || isApprovedForAll(from, _msgSender()),\r\n            \"ERC1155: transfer caller is not owner nor approved\"\r\n        );\r\n        _safeBatchTransferFrom(from, to, ids, amounts, data);\r\n    }\r\n\r\n    /**\r\n     * @dev Transfers `amount` tokens of token type `id` from `from` to `to`.\r\n     *\r\n     * Emits a {TransferSingle} event.\r\n     *\r\n     * Requirements:\r\n     *\r\n     * - `to` cannot be the zero address.\r\n     * - `from` must have a balance of tokens of type `id` of at least `amount`.\r\n     * - If `to` refers to a smart contract, it must implement {IERC1155Receiver-onERC1155Received} and return the\r\n     * acceptance magic value.\r\n     */\r\n    function _safeTransferFrom(\r\n        address from,\r\n        address to,\r\n        uint256 id,\r\n        uint256 amount,\r\n        bytes memory data\r\n    ) internal virtual {\r\n        require(to != address(0), \"ERC1155: transfer to the zero address\");\r\n\r\n        address operator = _msgSender();\r\n\r\n        _beforeTokenTransfer(\r\n            operator,\r\n            from,\r\n            to,\r\n            _asSingletonArray(id),\r\n            _asSingletonArray(amount),\r\n            data\r\n        );\r\n\r\n        uint256 fromBalance = _balances[id][from];\r\n        require(\r\n            fromBalance >= amount,\r\n            \"ERC1155: insufficient balance for transfer\"\r\n        );\r\n        unchecked {\r\n            _balances[id][from] = fromBalance - amount;\r\n        }\r\n        _balances[id][to] += amount;\r\n\r\n        emit TransferSingle(operator, from, to, id, amount);\r\n\r\n        _doSafeTransferAcceptanceCheck(operator, from, to, id, amount, data);\r\n    }\r\n\r\n    /**\r\n     * @dev xref:ROOT:erc1155.adoc#batch-operations[Batched] version of {_safeTransferFrom}.\r\n     *\r\n     * Emits a {TransferBatch} event.\r\n     *\r\n     * Requirements:\r\n     *\r\n     * - If `to` refers to a smart contract, it must implement {IERC1155Receiver-onERC1155BatchReceived} and return the\r\n     * acceptance magic value.\r\n     */\r\n    function _safeBatchTransferFrom(\r\n        address from,\r\n        address to,\r\n        uint256[] memory ids,\r\n        uint256[] memory amounts,\r\n        bytes memory data\r\n    ) internal virtual {\r\n        require(\r\n            ids.length == amounts.length,\r\n            \"ERC1155: ids and amounts length mismatch\"\r\n        );\r\n        require(to != address(0), \"ERC1155: transfer to the zero address\");\r\n\r\n        address operator = _msgSender();\r\n\r\n        _beforeTokenTransfer(operator, from, to, ids, amounts, data);\r\n\r\n        for (uint256 i = 0; i < ids.length; ++i) {\r\n            uint256 id = ids[i];\r\n            uint256 amount = amounts[i];\r\n\r\n            uint256 fromBalance = _balances[id][from];\r\n            require(\r\n                fromBalance >= amount,\r\n                \"ERC1155: insufficient balance for transfer\"\r\n            );\r\n            unchecked {\r\n                _balances[id][from] = fromBalance - amount;\r\n            }\r\n            _balances[id][to] += amount;\r\n        }\r\n\r\n        emit TransferBatch(operator, from, to, ids, amounts);\r\n\r\n        _doSafeBatchTransferAcceptanceCheck(\r\n            operator,\r\n            from,\r\n            to,\r\n            ids,\r\n            amounts,\r\n            data\r\n        );\r\n    }\r\n\r\n    /**\r\n     * @dev Sets a new URI for all token types, by relying on the token type ID\r\n     * substitution mechanism\r\n     * https://eips.ethereum.org/EIPS/eip-1155#metadata[defined in the EIP].\r\n     *\r\n     * By this mechanism, any occurrence of the `\\{id\\}` substring in either the\r\n     * URI or any of the amounts in the JSON file at said URI will be replaced by\r\n     * clients with the token type ID.\r\n     *\r\n     * For example, the `https://token-cdn-domain/\\{id\\}.json` URI would be\r\n     * interpreted by clients as\r\n     * `https://token-cdn-domain/000000000000000000000000000000000000000000000000000000000004cce0.json`\r\n     * for token type ID 0x4cce0.\r\n     *\r\n     * See {uri}.\r\n     *\r\n     * Because these URIs cannot be meaningfully represented by the {URI} event,\r\n     * this function emits no events.\r\n     */\r\n    function _setURI(string memory newuri) internal virtual {\r\n        _uri = newuri;\r\n    }\r\n\r\n    /**\r\n     * @dev Creates `amount` tokens of token type `id`, and assigns them to `to`.\r\n     *\r\n     * Emits a {TransferSingle} event.\r\n     *\r\n     * Requirements:\r\n     *\r\n     * - `to` cannot be the zero address.\r\n     * - If `to` refers to a smart contract, it must implement {IERC1155Receiver-onERC1155Received} and return the\r\n     * acceptance magic value.\r\n     */\r\n    function _mint(\r\n        address to,\r\n        uint256 id,\r\n        uint256 amount,\r\n        bytes memory data\r\n    ) internal virtual {\r\n        require(to != address(0), \"ERC1155: mint to the zero address\");\r\n\r\n        address operator = _msgSender();\r\n\r\n        _beforeTokenTransfer(\r\n            operator,\r\n            address(0),\r\n            to,\r\n            _asSingletonArray(id),\r\n            _asSingletonArray(amount),\r\n            data\r\n        );\r\n\r\n        _balances[id][to] += amount;\r\n        emit TransferSingle(operator, address(0), to, id, amount);\r\n\r\n        _doSafeTransferAcceptanceCheck(\r\n            operator,\r\n            address(0),\r\n            to,\r\n            id,\r\n            amount,\r\n            data\r\n        );\r\n    }\r\n\r\n    /**\r\n     * @dev xref:ROOT:erc1155.adoc#batch-operations[Batched] version of {_mint}.\r\n     *\r\n     * Requirements:\r\n     *\r\n     * - `ids` and `amounts` must have the same length.\r\n     * - If `to` refers to a smart contract, it must implement {IERC1155Receiver-onERC1155BatchReceived} and return the\r\n     * acceptance magic value.\r\n     */\r\n    function _mintBatch(\r\n        address to,\r\n        uint256[] memory ids,\r\n        uint256[] memory amounts,\r\n        bytes memory data\r\n    ) internal virtual {\r\n        require(to != address(0), \"ERC1155: mint to the zero address\");\r\n        require(\r\n            ids.length == amounts.length,\r\n            \"ERC1155: ids and amounts length mismatch\"\r\n        );\r\n\r\n        address operator = _msgSender();\r\n\r\n        _beforeTokenTransfer(operator, address(0), to, ids, amounts, data);\r\n\r\n        for (uint256 i = 0; i < ids.length; i++) {\r\n            _balances[ids[i]][to] += amounts[i];\r\n        }\r\n\r\n        emit TransferBatch(operator, address(0), to, ids, amounts);\r\n\r\n        _doSafeBatchTransferAcceptanceCheck(\r\n            operator,\r\n            address(0),\r\n            to,\r\n            ids,\r\n            amounts,\r\n            data\r\n        );\r\n    }\r\n\r\n    /**\r\n     * @dev Destroys `amount` tokens of token type `id` from `from`\r\n     *\r\n     * Requirements:\r\n     *\r\n     * - `from` cannot be the zero address.\r\n     * - `from` must have at least `amount` tokens of token type `id`.\r\n     */\r\n    function _burn(\r\n        address from,\r\n        uint256 id,\r\n        uint256 amount\r\n    ) internal virtual {\r\n        require(from != address(0), \"ERC1155: burn from the zero address\");\r\n\r\n        address operator = _msgSender();\r\n\r\n        _beforeTokenTransfer(\r\n            operator,\r\n            from,\r\n            address(0),\r\n            _asSingletonArray(id),\r\n            _asSingletonArray(amount),\r\n            \"\"\r\n        );\r\n\r\n        uint256 fromBalance = _balances[id][from];\r\n        require(fromBalance >= amount, \"ERC1155: burn amount exceeds balance\");\r\n        unchecked {\r\n            _balances[id][from] = fromBalance - amount;\r\n        }\r\n\r\n        emit TransferSingle(operator, from, address(0), id, amount);\r\n    }\r\n\r\n    /**\r\n     * @dev xref:ROOT:erc1155.adoc#batch-operations[Batched] version of {_burn}.\r\n     *\r\n     * Requirements:\r\n     *\r\n     * - `ids` and `amounts` must have the same length.\r\n     */\r\n    function _burnBatch(\r\n        address from,\r\n        uint256[] memory ids,\r\n        uint256[] memory amounts\r\n    ) internal virtual {\r\n        require(from != address(0), \"ERC1155: burn from the zero address\");\r\n        require(\r\n            ids.length == amounts.length,\r\n            \"ERC1155: ids and amounts length mismatch\"\r\n        );\r\n\r\n        address operator = _msgSender();\r\n\r\n        _beforeTokenTransfer(operator, from, address(0), ids, amounts, \"\");\r\n\r\n        for (uint256 i = 0; i < ids.length; i++) {\r\n            uint256 id = ids[i];\r\n            uint256 amount = amounts[i];\r\n\r\n            uint256 fromBalance = _balances[id][from];\r\n            require(\r\n                fromBalance >= amount,\r\n                \"ERC1155: burn amount exceeds balance\"\r\n            );\r\n            unchecked {\r\n                _balances[id][from] = fromBalance - amount;\r\n            }\r\n        }\r\n\r\n        emit TransferBatch(operator, from, address(0), ids, amounts);\r\n    }\r\n\r\n    /**\r\n     * @dev Approve `operator` to operate on all of `owner` tokens\r\n     *\r\n     * Emits a {ApprovalForAll} event.\r\n     */\r\n    function _setApprovalForAll(\r\n        address owner,\r\n        address operator,\r\n        bool approved\r\n    ) internal virtual {\r\n        require(owner != operator, \"ERC1155: setting approval status for self\");\r\n        _operatorApprovals[owner][operator] = approved;\r\n        emit ApprovalForAll(owner, operator, approved);\r\n    }\r\n\r\n    /**\r\n     * @dev Hook that is called before any token transfer. This includes minting\r\n     * and burning, as well as batched variants.\r\n     *\r\n     * The same hook is called on both single and batched variants. For single\r\n     * transfers, the length of the `id` and `amount` arrays will be 1.\r\n     *\r\n     * Calling conditions (for each `id` and `amount` pair):\r\n     *\r\n     * - When `from` and `to` are both non-zero, `amount` of ``from``'s tokens\r\n     * of token type `id` will be  transferred to `to`.\r\n     * - When `from` is zero, `amount` tokens of token type `id` will be minted\r\n     * for `to`.\r\n     * - when `to` is zero, `amount` of ``from``'s tokens of token type `id`\r\n     * will be burned.\r\n     * - `from` and `to` are never both zero.\r\n     * - `ids` and `amounts` have the same, non-zero length.\r\n     *\r\n     * To learn more about hooks, head to xref:ROOT:extending-contracts.adoc#using-hooks[Using Hooks].\r\n     */\r\n    function _beforeTokenTransfer(\r\n        address operator,\r\n        address from,\r\n        address to,\r\n        uint256[] memory ids,\r\n        uint256[] memory amounts,\r\n        bytes memory data\r\n    ) internal virtual {}\r\n\r\n    function _doSafeTransferAcceptanceCheck(\r\n        address operator,\r\n        address from,\r\n        address to,\r\n        uint256 id,\r\n        uint256 amount,\r\n        bytes memory data\r\n    ) private {\r\n        if (to.isContract()) {\r\n            try\r\n                IERC1155Receiver(to).onERC1155Received(\r\n                    operator,\r\n                    from,\r\n                    id,\r\n                    amount,\r\n                    data\r\n                )\r\n            returns (bytes4 response) {\r\n                if (response != IERC1155Receiver.onERC1155Received.selector) {\r\n                    revert(\"ERC1155: ERC1155Receiver rejected tokens\");\r\n                }\r\n            } catch Error(string memory reason) {\r\n                revert(reason);\r\n            } catch {\r\n                revert(\"ERC1155: transfer to non ERC1155Receiver implementer\");\r\n            }\r\n        }\r\n    }\r\n\r\n    function _doSafeBatchTransferAcceptanceCheck(\r\n        address operator,\r\n        address from,\r\n        address to,\r\n        uint256[] memory ids,\r\n        uint256[] memory amounts,\r\n        bytes memory data\r\n    ) private {\r\n        if (to.isContract()) {\r\n            try\r\n                IERC1155Receiver(to).onERC1155BatchReceived(\r\n                    operator,\r\n                    from,\r\n                    ids,\r\n                    amounts,\r\n                    data\r\n                )\r\n            returns (bytes4 response) {\r\n                if (\r\n                    response != IERC1155Receiver.onERC1155BatchReceived.selector\r\n                ) {\r\n                    revert(\"ERC1155: ERC1155Receiver rejected tokens\");\r\n                }\r\n            } catch Error(string memory reason) {\r\n                revert(reason);\r\n            } catch {\r\n                revert(\"ERC1155: transfer to non ERC1155Receiver implementer\");\r\n            }\r\n        }\r\n    }\r\n\r\n    function _asSingletonArray(uint256 element)\r\n        private\r\n        pure\r\n        returns (uint256[] memory)\r\n    {\r\n        uint256[] memory array = new uint256[](1);\r\n        array[0] = element;\r\n\r\n        return array;\r\n    }\r\n}\r\n\r\n// File @openzeppelin/contracts/utils/Counters.sol@v4.5.0\r\n\r\n// OpenZeppelin Contracts v4.4.1 (utils/Counters.sol)\r\n\r\npragma solidity ^0.8.0;\r\n\r\n/**\r\n * @title Counters\r\n * @author Matt Condon (@shrugs)\r\n * @dev Provides counters that can only be incremented, decremented or reset. This can be used e.g. to track the number\r\n * of elements in a mapping, issuing ERC721 ids, or counting request ids.\r\n *\r\n * Include with `using Counters for Counters.Counter;`\r\n */\r\nlibrary Counters {\r\n    struct Counter {\r\n        // This variable should never be directly accessed by users of the library: interactions must be restricted to\r\n        // the library's function. As of Solidity v0.5.2, this cannot be enforced, though there is a proposal to add\r\n        // this feature: see https://github.com/ethereum/solidity/issues/4637\r\n        uint256 _value; // default: 0\r\n    }\r\n\r\n    function current(Counter storage counter) internal view returns (uint256) {\r\n        return counter._value;\r\n    }\r\n\r\n    function increment(Counter storage counter) internal {\r\n        unchecked {\r\n            counter._value += 1;\r\n        }\r\n    }\r\n\r\n    function decrement(Counter storage counter) internal {\r\n        uint256 value = counter._value;\r\n        require(value > 0, \"Counter: decrement overflow\");\r\n        unchecked {\r\n            counter._value = value - 1;\r\n        }\r\n    }\r\n\r\n    function reset(Counter storage counter) internal {\r\n        counter._value = 0;\r\n    }\r\n}\r\n\r\n// File @openzeppelin/contracts/access/Ownable.sol@v4.5.0\r\n\r\n// OpenZeppelin Contracts v4.4.1 (access/Ownable.sol)\r\n\r\npragma solidity ^0.8.0;\r\n\r\n/**\r\n * @dev Contract module which provides a basic access control mechanism, where\r\n * there is an account (an owner) that can be granted exclusive access to\r\n * specific functions.\r\n *\r\n * By default, the owner account will be the one that deploys the contract. This\r\n * can later be changed with {transferOwnership}.\r\n *\r\n * This module is used through inheritance. It will make available the modifier\r\n * `onlyOwner`, which can be applied to your functions to restrict their use to\r\n * the owner.\r\n */\r\nabstract contract Ownable is Context {\r\n    address private _owner;\r\n\r\n    event OwnershipTransferred(\r\n        address indexed previousOwner,\r\n        address indexed newOwner\r\n    );\r\n\r\n    /**\r\n     * @dev Initializes the contract setting the deployer as the initial owner.\r\n     */\r\n    constructor() {\r\n        _transferOwnership(_msgSender());\r\n    }\r\n\r\n    /**\r\n     * @dev Returns the address of the current owner.\r\n     */\r\n    function owner() public view virtual returns (address) {\r\n        return _owner;\r\n    }\r\n\r\n    /**\r\n     * @dev Throws if called by any account other than the owner.\r\n     */\r\n    modifier onlyOwner() {\r\n        require(owner() == _msgSender(), \"Ownable: caller is not the owner\");\r\n        _;\r\n    }\r\n\r\n    /**\r\n     * @dev Leaves the contract without owner. It will not be possible to call\r\n     * `onlyOwner` functions anymore. Can only be called by the current owner.\r\n     *\r\n     * NOTE: Renouncing ownership will leave the contract without an owner,\r\n     * thereby removing any functionality that is only available to the owner.\r\n     */\r\n    function renounceOwnership() public virtual onlyOwner {\r\n        _transferOwnership(address(0));\r\n    }\r\n\r\n    /**\r\n     * @dev Transfers ownership of the contract to a new account (`newOwner`).\r\n     * Can only be called by the current owner.\r\n     */\r\n    function transferOwnership(address newOwner) public virtual onlyOwner {\r\n        require(\r\n            newOwner != address(0),\r\n            \"Ownable: new owner is the zero address\"\r\n        );\r\n        _transferOwnership(newOwner);\r\n    }\r\n\r\n    /**\r\n     * @dev Transfers ownership of the contract to a new account (`newOwner`).\r\n     * Internal function without access restriction.\r\n     */\r\n    function _transferOwnership(address newOwner) internal virtual {\r\n        address oldOwner = _owner;\r\n        _owner = newOwner;\r\n        emit OwnershipTransferred(oldOwner, newOwner);\r\n    }\r\n}\r\n\r\n// File @openzeppelin/contracts/utils/Strings.sol@v4.5.0\r\n\r\n// OpenZeppelin Contracts v4.4.1 (utils/Strings.sol)\r\n\r\npragma solidity ^0.8.0;\r\n\r\n/**\r\n * @dev String operations.\r\n */\r\nlibrary Strings {\r\n    bytes16 private constant _HEX_SYMBOLS = \"0123456789abcdef\";\r\n\r\n    /**\r\n     * @dev Converts a `uint256` to its ASCII `string` decimal representation.\r\n     */\r\n    function toString(uint256 value) internal pure returns (string memory) {\r\n        // Inspired by OraclizeAPI's implementation - MIT licence\r\n        // https://github.com/oraclize/ethereum-api/blob/b42146b063c7d6ee1358846c198246239e9360e8/oraclizeAPI_0.4.25.sol\r\n\r\n        if (value == 0) {\r\n            return \"0\";\r\n        }\r\n        uint256 temp = value;\r\n        uint256 digits;\r\n        while (temp != 0) {\r\n            digits++;\r\n            temp /= 10;\r\n        }\r\n        bytes memory buffer = new bytes(digits);\r\n        while (value != 0) {\r\n            digits -= 1;\r\n            buffer[digits] = bytes1(uint8(48 + uint256(value % 10)));\r\n            value /= 10;\r\n        }\r\n        return string(buffer);\r\n    }\r\n\r\n    /**\r\n     * @dev Converts a `uint256` to its ASCII `string` hexadecimal representation.\r\n     */\r\n    function toHexString(uint256 value) internal pure returns (string memory) {\r\n        if (value == 0) {\r\n            return \"0x00\";\r\n        }\r\n        uint256 temp = value;\r\n        uint256 length = 0;\r\n        while (temp != 0) {\r\n            length++;\r\n            temp >>= 8;\r\n        }\r\n        return toHexString(value, length);\r\n    }\r\n\r\n    /**\r\n     * @dev Converts a `uint256` to its ASCII `string` hexadecimal representation with fixed length.\r\n     */\r\n    function toHexString(uint256 value, uint256 length)\r\n        internal\r\n        pure\r\n        returns (string memory)\r\n    {\r\n        bytes memory buffer = new bytes(2 * length + 2);\r\n        buffer[0] = \"0\";\r\n        buffer[1] = \"x\";\r\n        for (uint256 i = 2 * length + 1; i > 1; --i) {\r\n            buffer[i] = _HEX_SYMBOLS[value & 0xf];\r\n            value >>= 4;\r\n        }\r\n        require(value == 0, \"Strings: hex length insufficient\");\r\n        return string(buffer);\r\n    }\r\n}\r\n\r\n// File @openzeppelin/contracts/access/IAccessControl.sol@v4.5.0\r\n\r\n// OpenZeppelin Contracts v4.4.1 (access/IAccessControl.sol)\r\n\r\npragma solidity ^0.8.0;\r\n\r\n/**\r\n * @dev External interface of AccessControl declared to support ERC165 detection.\r\n */\r\ninterface IAccessControl {\r\n    /**\r\n     * @dev Emitted when `newAdminRole` is set as ``role``'s admin role, replacing `previousAdminRole`\r\n     *\r\n     * `DEFAULT_ADMIN_ROLE` is the starting admin for all roles, despite\r\n     * {RoleAdminChanged} not being emitted signaling this.\r\n     *\r\n     * _Available since v3.1._\r\n     */\r\n    event RoleAdminChanged(\r\n        bytes32 indexed role,\r\n        bytes32 indexed previousAdminRole,\r\n        bytes32 indexed newAdminRole\r\n    );\r\n\r\n    /**\r\n     * @dev Emitted when `account` is granted `role`.\r\n     *\r\n     * `sender` is the account that originated the contract call, an admin role\r\n     * bearer except when using {AccessControl-_setupRole}.\r\n     */\r\n    event RoleGranted(\r\n        bytes32 indexed role,\r\n        address indexed account,\r\n        address indexed sender\r\n    );\r\n\r\n    /**\r\n     * @dev Emitted when `account` is revoked `role`.\r\n     *\r\n     * `sender` is the account that originated the contract call:\r\n     *   - if using `revokeRole`, it is the admin role bearer\r\n     *   - if using `renounceRole`, it is the role bearer (i.e. `account`)\r\n     */\r\n    event RoleRevoked(\r\n        bytes32 indexed role,\r\n        address indexed account,\r\n        address indexed sender\r\n    );\r\n\r\n    /**\r\n     * @dev Returns `true` if `account` has been granted `role`.\r\n     */\r\n    function hasRole(bytes32 role, address account)\r\n        external\r\n        view\r\n        returns (bool);\r\n\r\n    /**\r\n     * @dev Returns the admin role that controls `role`. See {grantRole} and\r\n     * {revokeRole}.\r\n     *\r\n     * To change a role's admin, use {AccessControl-_setRoleAdmin}.\r\n     */\r\n    function getRoleAdmin(bytes32 role) external view returns (bytes32);\r\n\r\n    /**\r\n     * @dev Grants `role` to `account`.\r\n     *\r\n     * If `account` had not been already granted `role`, emits a {RoleGranted}\r\n     * event.\r\n     *\r\n     * Requirements:\r\n     *\r\n     * - the caller must have ``role``'s admin role.\r\n     */\r\n    function grantRole(bytes32 role, address account) external;\r\n\r\n    /**\r\n     * @dev Revokes `role` from `account`.\r\n     *\r\n     * If `account` had been granted `role`, emits a {RoleRevoked} event.\r\n     *\r\n     * Requirements:\r\n     *\r\n     * - the caller must have ``role``'s admin role.\r\n     */\r\n    function revokeRole(bytes32 role, address account) external;\r\n\r\n    /**\r\n     * @dev Revokes `role` from the calling account.\r\n     *\r\n     * Roles are often managed via {grantRole} and {revokeRole}: this function's\r\n     * purpose is to provide a mechanism for accounts to lose their privileges\r\n     * if they are compromised (such as when a trusted device is misplaced).\r\n     *\r\n     * If the calling account had been granted `role`, emits a {RoleRevoked}\r\n     * event.\r\n     *\r\n     * Requirements:\r\n     *\r\n     * - the caller must be `account`.\r\n     */\r\n    function renounceRole(bytes32 role, address account) external;\r\n}\r\n\r\n// File @openzeppelin/contracts/access/AccessControl.sol@v4.5.0\r\n\r\n// OpenZeppelin Contracts (last updated v4.5.0) (access/AccessControl.sol)\r\n\r\npragma solidity ^0.8.0;\r\n\r\n/**\r\n * @dev Contract module that allows children to implement role-based access\r\n * control mechanisms. This is a lightweight version that doesn't allow enumerating role\r\n * members except through off-chain means by accessing the contract event logs. Some\r\n * applications may benefit from on-chain enumerability, for those cases see\r\n * {AccessControlEnumerable}.\r\n *\r\n * Roles are referred to by their `bytes32` identifier. These should be exposed\r\n * in the external API and be unique. The best way to achieve this is by\r\n * using `public constant` hash digests:\r\n *\r\n * ```\r\n * bytes32 public constant MY_ROLE = keccak256(\"MY_ROLE\");\r\n * ```\r\n *\r\n * Roles can be used to represent a set of permissions. To restrict access to a\r\n * function call, use {hasRole}:\r\n *\r\n * ```\r\n * function foo() public {\r\n *     require(hasRole(MY_ROLE, msg.sender));\r\n *     ...\r\n * }\r\n * ```\r\n *\r\n * Roles can be granted and revoked dynamically via the {grantRole} and\r\n * {revokeRole} functions. Each role has an associated admin role, and only\r\n * accounts that have a role's admin role can call {grantRole} and {revokeRole}.\r\n *\r\n * By default, the admin role for all roles is `DEFAULT_ADMIN_ROLE`, which means\r\n * that only accounts with this role will be able to grant or revoke other\r\n * roles. More complex role relationships can be created by using\r\n * {_setRoleAdmin}.\r\n *\r\n * WARNING: The `DEFAULT_ADMIN_ROLE` is also its own admin: it has permission to\r\n * grant and revoke this role. Extra precautions should be taken to secure\r\n * accounts that have been granted it.\r\n */\r\nabstract contract AccessControl is Context, IAccessControl, ERC165 {\r\n    struct RoleData {\r\n        mapping(address => bool) members;\r\n        bytes32 adminRole;\r\n    }\r\n\r\n    mapping(bytes32 => RoleData) private _roles;\r\n\r\n    bytes32 public constant DEFAULT_ADMIN_ROLE = 0x00;\r\n\r\n    /**\r\n     * @dev Modifier that checks that an account has a specific role. Reverts\r\n     * with a standardized message including the required role.\r\n     *\r\n     * The format of the revert reason is given by the following regular expression:\r\n     *\r\n     *  /^AccessControl: account (0x[0-9a-f]{40}) is missing role (0x[0-9a-f]{64})$/\r\n     *\r\n     * _Available since v4.1._\r\n     */\r\n    modifier onlyRole(bytes32 role) {\r\n        _checkRole(role, _msgSender());\r\n        _;\r\n    }\r\n\r\n    /**\r\n     * @dev See {IERC165-supportsInterface}.\r\n     */\r\n    function supportsInterface(bytes4 interfaceId)\r\n        public\r\n        view\r\n        virtual\r\n        override\r\n        returns (bool)\r\n    {\r\n        return\r\n            interfaceId == type(IAccessControl).interfaceId ||\r\n            super.supportsInterface(interfaceId);\r\n    }\r\n\r\n    /**\r\n     * @dev Returns `true` if `account` has been granted `role`.\r\n     */\r\n    function hasRole(bytes32 role, address account)\r\n        public\r\n        view\r\n        virtual\r\n        override\r\n        returns (bool)\r\n    {\r\n        return _roles[role].members[account];\r\n    }\r\n\r\n    /**\r\n     * @dev Revert with a standard message if `account` is missing `role`.\r\n     *\r\n     * The format of the revert reason is given by the following regular expression:\r\n     *\r\n     *  /^AccessControl: account (0x[0-9a-f]{40}) is missing role (0x[0-9a-f]{64})$/\r\n     */\r\n    function _checkRole(bytes32 role, address account) internal view virtual {\r\n        if (!hasRole(role, account)) {\r\n            revert(\r\n                string(\r\n                    abi.encodePacked(\r\n                        \"AccessControl: account \",\r\n                        Strings.toHexString(uint160(account), 20),\r\n                        \" is missing role \",\r\n                        Strings.toHexString(uint256(role), 32)\r\n                    )\r\n                )\r\n            );\r\n        }\r\n    }\r\n\r\n    /**\r\n     * @dev Returns the admin role that controls `role`. See {grantRole} and\r\n     * {revokeRole}.\r\n     *\r\n     * To change a role's admin, use {_setRoleAdmin}.\r\n     */\r\n    function getRoleAdmin(bytes32 role)\r\n        public\r\n        view\r\n        virtual\r\n        override\r\n        returns (bytes32)\r\n    {\r\n        return _roles[role].adminRole;\r\n    }\r\n\r\n    /**\r\n     * @dev Grants `role` to `account`.\r\n     *\r\n     * If `account` had not been already granted `role`, emits a {RoleGranted}\r\n     * event.\r\n     *\r\n     * Requirements:\r\n     *\r\n     * - the caller must have ``role``'s admin role.\r\n     */\r\n    function grantRole(bytes32 role, address account)\r\n        public\r\n        virtual\r\n        override\r\n        onlyRole(getRoleAdmin(role))\r\n    {\r\n        _grantRole(role, account);\r\n    }\r\n\r\n    /**\r\n     * @dev Revokes `role` from `account`.\r\n     *\r\n     * If `account` had been granted `role`, emits a {RoleRevoked} event.\r\n     *\r\n     * Requirements:\r\n     *\r\n     * - the caller must have ``role``'s admin role.\r\n     */\r\n    function revokeRole(bytes32 role, address account)\r\n        public\r\n        virtual\r\n        override\r\n        onlyRole(getRoleAdmin(role))\r\n    {\r\n        _revokeRole(role, account);\r\n    }\r\n\r\n    /**\r\n     * @dev Revokes `role` from the calling account.\r\n     *\r\n     * Roles are often managed via {grantRole} and {revokeRole}: this function's\r\n     * purpose is to provide a mechanism for accounts to lose their privileges\r\n     * if they are compromised (such as when a trusted device is misplaced).\r\n     *\r\n     * If the calling account had been revoked `role`, emits a {RoleRevoked}\r\n     * event.\r\n     *\r\n     * Requirements:\r\n     *\r\n     * - the caller must be `account`.\r\n     */\r\n    function renounceRole(bytes32 role, address account)\r\n        public\r\n        virtual\r\n        override\r\n    {\r\n        require(\r\n            account == _msgSender(),\r\n            \"AccessControl: can only renounce roles for self\"\r\n        );\r\n\r\n        _revokeRole(role, account);\r\n    }\r\n\r\n    /**\r\n     * @dev Grants `role` to `account`.\r\n     *\r\n     * If `account` had not been already granted `role`, emits a {RoleGranted}\r\n     * event. Note that unlike {grantRole}, this function doesn't perform any\r\n     * checks on the calling account.\r\n     *\r\n     * [WARNING]\r\n     * ====\r\n     * This function should only be called from the constructor when setting\r\n     * up the initial roles for the system.\r\n     *\r\n     * Using this function in any other way is effectively circumventing the admin\r\n     * system imposed by {AccessControl}.\r\n     * ====\r\n     *\r\n     * NOTE: This function is deprecated in favor of {_grantRole}.\r\n     */\r\n    function _setupRole(bytes32 role, address account) internal virtual {\r\n        _grantRole(role, account);\r\n    }\r\n\r\n    /**\r\n     * @dev Sets `adminRole` as ``role``'s admin role.\r\n     *\r\n     * Emits a {RoleAdminChanged} event.\r\n     */\r\n    function _setRoleAdmin(bytes32 role, bytes32 adminRole) internal virtual {\r\n        bytes32 previousAdminRole = getRoleAdmin(role);\r\n        _roles[role].adminRole = adminRole;\r\n        emit RoleAdminChanged(role, previousAdminRole, adminRole);\r\n    }\r\n\r\n    /**\r\n     * @dev Grants `role` to `account`.\r\n     *\r\n     * Internal function without access restriction.\r\n     */\r\n    function _grantRole(bytes32 role, address account) internal virtual {\r\n        if (!hasRole(role, account)) {\r\n            _roles[role].members[account] = true;\r\n            emit RoleGranted(role, account, _msgSender());\r\n        }\r\n    }\r\n\r\n    /**\r\n     * @dev Revokes `role` from `account`.\r\n     *\r\n     * Internal function without access restriction.\r\n     */\r\n    function _revokeRole(bytes32 role, address account) internal virtual {\r\n        if (hasRole(role, account)) {\r\n            _roles[role].members[account] = false;\r\n            emit RoleRevoked(role, account, _msgSender());\r\n        }\r\n    }\r\n}\r\n\r\n// File @openzeppelin/contracts/security/ReentrancyGuard.sol@v4.5.0\r\n\r\n// OpenZeppelin Contracts v4.4.1 (security/ReentrancyGuard.sol)\r\n\r\npragma solidity ^0.8.0;\r\n\r\n/**\r\n * @dev Contract module that helps prevent reentrant calls to a function.\r\n *\r\n * Inheriting from `ReentrancyGuard` will make the {nonReentrant} modifier\r\n * available, which can be applied to functions to make sure there are no nested\r\n * (reentrant) calls to them.\r\n *\r\n * Note that because there is a single `nonReentrant` guard, functions marked as\r\n * `nonReentrant` may not call one another. This can be worked around by making\r\n * those functions `private`, and then adding `external` `nonReentrant` entry\r\n * points to them.\r\n *\r\n * TIP: If you would like to learn more about reentrancy and alternative ways\r\n * to protect against it, check out our blog post\r\n * https://blog.openzeppelin.com/reentrancy-after-istanbul/[Reentrancy After Istanbul].\r\n */\r\nabstract contract ReentrancyGuard {\r\n    // Booleans are more expensive than uint256 or any type that takes up a full\r\n    // word because each write operation emits an extra SLOAD to first read the\r\n    // slot's contents, replace the bits taken up by the boolean, and then write\r\n    // back. This is the compiler's defense against contract upgrades and\r\n    // pointer aliasing, and it cannot be disabled.\r\n\r\n    // The values being non-zero value makes deployment a bit more expensive,\r\n    // but in exchange the refund on every call to nonReentrant will be lower in\r\n    // amount. Since refunds are capped to a percentage of the total\r\n    // transaction's gas, it is best to keep them low in cases like this one, to\r\n    // increase the likelihood of the full refund coming into effect.\r\n    uint256 private constant _NOT_ENTERED = 1;\r\n    uint256 private constant _ENTERED = 2;\r\n\r\n    uint256 private _status;\r\n\r\n    constructor() {\r\n        _status = _NOT_ENTERED;\r\n    }\r\n\r\n    /**\r\n     * @dev Prevents a contract from calling itself, directly or indirectly.\r\n     * Calling a `nonReentrant` function from another `nonReentrant`\r\n     * function is not supported. It is possible to prevent this from happening\r\n     * by making the `nonReentrant` function external, and making it call a\r\n     * `private` function that does the actual work.\r\n     */\r\n    modifier nonReentrant() {\r\n        // On the first call to nonReentrant, _notEntered will be true\r\n        require(_status != _ENTERED, \"ReentrancyGuard: reentrant call\");\r\n\r\n        // Any calls to nonReentrant after this point will fail\r\n        _status = _ENTERED;\r\n\r\n        _;\r\n\r\n        // By storing the original value once again, a refund is triggered (see\r\n        // https://eips.ethereum.org/EIPS/eip-2200)\r\n        _status = _NOT_ENTERED;\r\n    }\r\n}\r\n\r\n// File contracts/PremiumPack.sol\r\n\r\npragma solidity 0.8.1;\r\n\r\ncontract PremiumDog is ERC1155, Ownable, AccessControl, ReentrancyGuard {\r\n    using Counters for Counters.Counter;\r\n\r\n    Counters.Counter private _tokenCounter;\r\n\r\n    event NewDogMinted(address receiver, uint256 tokenId, uint8 dogType);\r\n\r\n    mapping(uint256 => uint8) public tokenDogType;\r\n    mapping(address => uint8) public numberOfMint;\r\n\r\n    struct Dog {\r\n        uint256 price;\r\n        uint8 dogType;\r\n        uint8 count;\r\n    }\r\n\r\n    Dog labrador;\r\n    Dog akita;\r\n    Dog hybrid;\r\n    Dog shiba;\r\n\r\n    uint256 private mintAmount = 1;\r\n    bytes private mintData = \"\";\r\n\r\n    string public constant name = \"The Dog of AndyBimBam\";\r\n    string public constant symbol = \"DABB\";\r\n\r\n    bool public saleOpen = false;\r\n\r\n    uint256 public constant maxSupply = 10000;\r\n\r\n    constructor() ERC1155(\"\") {\r\n        labrador = Dog(10000000000000000, 0, 0);\r\n        akita = Dog(20000000000000000, 1, 0);\r\n        hybrid = Dog(30000000000000000, 2, 0);\r\n        shiba = Dog(40000000000000000, 3, 0);\r\n    }\r\n\r\n    function supportsInterface(bytes4 interfaceId)\r\n        public\r\n        view\r\n        virtual\r\n        override(ERC1155, AccessControl)\r\n        returns (bool)\r\n    {\r\n        return super.supportsInterface(interfaceId);\r\n    }\r\n\r\n    function getDogByDogType(uint8 dogType)\r\n        public\r\n        view\r\n        returns (Dog memory dog)\r\n    {\r\n        require(dogType < 4, \"Invalid package type\");\r\n\r\n        if (dogType == 0) {\r\n            return labrador;\r\n        }\r\n        if (dogType == 1) {\r\n            return akita;\r\n        }\r\n        if (dogType == 2) {\r\n            return hybrid;\r\n        }\r\n        if (dogType == 3) {\r\n            return shiba;\r\n        }\r\n    }\r\n\r\n    function totalSupply() public pure returns (uint256) {\r\n        return maxSupply;\r\n    }\r\n\r\n    function getDogPrice(uint8 dogType) public view returns (uint256) {\r\n        Dog memory dog = getDogByDogType(dogType);\r\n        return dog.price;\r\n    }\r\n\r\n    function getDogCount(uint8 dogType) public view returns (uint256) {\r\n        Dog memory dog = getDogByDogType(dogType);\r\n        return dog.count;\r\n    }\r\n\r\n    function getCounter() public view returns (uint256) {\r\n        return _tokenCounter.current();\r\n    }\r\n\r\n    function createPack(uint8 dogType) public payable nonReentrant {\r\n        Dog memory dog = getDogByDogType(dogType);\r\n\r\n        require(_tokenCounter.current() < maxSupply, \"Max supply reached!\");\r\n\r\n        require(numberOfMint[msg.sender] < 4, \"Address has already minted!\");\r\n\r\n        require(saleOpen == true, \"Sale is not open yet!\");\r\n\r\n        require(msg.value >= dog.price, \"Matic value sent is not correct\");\r\n\r\n        uint256 newTokenId = _tokenCounter.current();\r\n\r\n        tokenDogType[newTokenId] = dog.dogType;\r\n\r\n        numberOfMint[msg.sender]++;\r\n\r\n        dog.count++;\r\n\r\n        _tokenCounter.increment();\r\n\r\n        _mint(msg.sender, newTokenId, mintAmount, mintData);\r\n\r\n        emit NewDogMinted(msg.sender, newTokenId, dogType);\r\n    }\r\n\r\n    function uri(uint256 tokenId)\r\n        public\r\n        view\r\n        override\r\n        returns (string memory myjson)\r\n    {\r\n        require(tokenDogType[tokenId] <= 3, \"Invalid package type\");\r\n\r\n        if (tokenDogType[tokenId] == 0) {\r\n            return (\r\n                string(\r\n                    abi.encodePacked(\r\n                        \"https://raw.githubusercontent.com/AndyWaiHim/MyMetadata/main/dog/labradro.json\"\r\n                    )\r\n                )\r\n            );\r\n        }\r\n        if (tokenDogType[tokenId] == 1) {\r\n            return (\r\n                string(\r\n                    abi.encodePacked(\r\n                        \"https://raw.githubusercontent.com/AndyWaiHim/MyMetadata/main/dog/akita.json\"\r\n                    )\r\n                )\r\n            );\r\n        }\r\n        if (tokenDogType[tokenId] == 2) {\r\n            return (\r\n                string(\r\n                    abi.encodePacked(\r\n                        \"https://raw.githubusercontent.com/AndyWaiHim/MyMetadata/main/dog/hybrid.json\"\r\n                    )\r\n                )\r\n            );\r\n        }\r\n        if (tokenDogType[tokenId] == 3) {\r\n            return (\r\n                string(\r\n                    abi.encodePacked(\r\n                        \"https://raw.githubusercontent.com/AndyWaiHim/MyMetadata/main/dog/shiba.json\"\r\n                    )\r\n                )\r\n            );\r\n        }\r\n    }\r\n\r\n    function changePrice(uint256[] memory dogType, uint256[] memory newPrice)\r\n        public\r\n        onlyOwner\r\n    {\r\n        require(saleOpen == false, \"sale is not open now!\");\r\n        require(\r\n            dogType.length == newPrice.length,\r\n            \"newPrice length must be equal to packType length\"\r\n        );\r\n        for (uint256 i = 0; i < dogType.length; i++) {\r\n            if (dogType[i] == 0) {\r\n                labrador.price = newPrice[i];\r\n            }\r\n            if (dogType[i] == 1) {\r\n                akita.price = newPrice[i];\r\n            }\r\n            if (dogType[i] == 2) {\r\n                hybrid.price = newPrice[i];\r\n            }\r\n            if (dogType[i] == 3) {\r\n                shiba.price = newPrice[i];\r\n            }\r\n        }\r\n    }\r\n\r\n    function changeSaleOpen(bool toggleSale) public onlyOwner {\r\n        saleOpen = toggleSale;\r\n    }\r\n\r\n    function burn(uint256 id, uint256 amount) external {\r\n        _burn(msg.sender, id, amount);\r\n    }\r\n}\r\n",
  "sourcePath": "C:\\Users\\Andy\\Documents\\3 - Web\\first create_eth-app\\my-eth-app\\truffle\\contracts\\PremiumDog.sol",
  "compiler": {
    "name": "solc",
    "version": "0.8.1+commit.df193b15.Emscripten.clang"
  },
  "schemaVersion": "3.4.7",
  "updatedAt": "2022-06-07T15:31:31.190Z",
  "networkType": "ethereum",
  "devdoc": {
    "kind": "dev",
    "methods": {
      "balanceOf(address,uint256)": {
        "details": "See {IERC1155-balanceOf}. Requirements: - `account` cannot be the zero address."
      },
      "balanceOfBatch(address[],uint256[])": {
        "details": "See {IERC1155-balanceOfBatch}. Requirements: - `accounts` and `ids` must have the same length."
      },
      "getRoleAdmin(bytes32)": {
        "details": "Returns the admin role that controls `role`. See {grantRole} and {revokeRole}. To change a role's admin, use {_setRoleAdmin}."
      },
      "grantRole(bytes32,address)": {
        "details": "Grants `role` to `account`. If `account` had not been already granted `role`, emits a {RoleGranted} event. Requirements: - the caller must have ``role``'s admin role."
      },
      "hasRole(bytes32,address)": {
        "details": "Returns `true` if `account` has been granted `role`."
      },
      "isApprovedForAll(address,address)": {
        "details": "See {IERC1155-isApprovedForAll}."
      },
      "owner()": {
        "details": "Returns the address of the current owner."
      },
      "renounceOwnership()": {
        "details": "Leaves the contract without owner. It will not be possible to call `onlyOwner` functions anymore. Can only be called by the current owner. NOTE: Renouncing ownership will leave the contract without an owner, thereby removing any functionality that is only available to the owner."
      },
      "renounceRole(bytes32,address)": {
        "details": "Revokes `role` from the calling account. Roles are often managed via {grantRole} and {revokeRole}: this function's purpose is to provide a mechanism for accounts to lose their privileges if they are compromised (such as when a trusted device is misplaced). If the calling account had been revoked `role`, emits a {RoleRevoked} event. Requirements: - the caller must be `account`."
      },
      "revokeRole(bytes32,address)": {
        "details": "Revokes `role` from `account`. If `account` had been granted `role`, emits a {RoleRevoked} event. Requirements: - the caller must have ``role``'s admin role."
      },
      "safeBatchTransferFrom(address,address,uint256[],uint256[],bytes)": {
        "details": "See {IERC1155-safeBatchTransferFrom}."
      },
      "safeTransferFrom(address,address,uint256,uint256,bytes)": {
        "details": "See {IERC1155-safeTransferFrom}."
      },
      "setApprovalForAll(address,bool)": {
        "details": "See {IERC1155-setApprovalForAll}."
      },
      "transferOwnership(address)": {
        "details": "Transfers ownership of the contract to a new account (`newOwner`). Can only be called by the current owner."
      }
    },
    "version": 1
  },
  "userdoc": {
    "kind": "user",
    "methods": {},
    "version": 1
  }
}